:0400000007EF00F016
:0A0008007A821FED0CF090EF16F065
:10100000003738392F3435362A3132332D23303DED
:101010002B57726F6E672050617373776F72640025
:101020005072657373203120746F20736574004DA6
:101030004F48414D45442047617A61720057454C05
:10104000434F4D4520544F0070726573732031201B
:10105000746F005365636F6E64733A20004D696E60
:10106000757465733A200073657420636C6F636BED
:0D10700000486F7572733A2000256900007A
:10107E008AEC13F06D0E5B6E000E5C6E010E5D6EF3
:10108E00030E5E6E3D0E5F6E100E606E52EC14F02F
:10109E00030E646E8A0E636E560EE82EFED7632E16
:1010AE00FCD7642EFAD76D0E5B6E000E5C6E020ED0
:1010BE005D6E030E5E6E2F0E5F6E100E606E52EC46
:1010CE0014F00B0E646E260E636E5E0EE82EFED7C7
:1010DE00632EFCD7642EFAD76D0E4F6E000E506E37
:1010EE00010E516E7FEC15F06D0E5B6E000E5C6E98
:1010FE00010E5D6E010E5E6E200E5F6E100E606E46
:10110E0052EC14F06D0E5B6E000E5C6E020E5D6E98
:10111E00010E5E6E670E5F6E100E606E52EC14F076
:10112E00030E646E8A0E636E560EE82EFED7632E85
:10113E00FCD7642EFAD7000E256EB00E416E000E4F
:10114E00426E360E436E000E446E1EEC17F03C0ED1
:10115E0036183710D8A4B6EF08F0B8EF08F0E2EF63
:10116E0008F0B00E416E000E426E000E446E000E80
:10117E00436EC6EC17F0674A682A3C0E6718681073
:10118E00D8A4CCEF08F0CEEF08F0E2EF08F0654AF5
:10119E00662A000E686E000E676E180E65186610D1
:1011AE00D8A4DCEF08F0DEEF08F0E2EF08F0000E56
:1011BE00666E000E656EB70E4B6E000E4C6E36C030
:1011CE0041F037C042F0000E446E0A0E436E5EECE4
:1011DE0016F041504D6E40EC13F0730E416E000E42
:1011EE00426E010E436E87EC10F0A80E4B6E000E91
:1011FE004C6E3E0E4D6E000E4E6EB2EC11F0730E36
:10120E00416E000E426E000E436E87EC10F0B70E6C
:10121E004B6E000E4C6E36C041F037C042F0000EE1
:10122E00446E0A0E436EBAEC15F041504D6E40EC12
:10123E0013F0740E416E000E426E010E436E87EC7B
:10124E0010F0060E636E300EE82EFED7632EFCD71E
:10125E0000D0740E416E000E426E000E436E87EC8F
:10126E0010F0B70E4B6E000E4C6E67C041F068C0AA
:10127E0042F0000E446E0A0E436E5EEC16F04150C4
:10128E004D6E40EC13F0750E416E000E426E010E67
:10129E00436E87EC10F0060E636E300EE82EFED70E
:1012AE00632EFCD700D0750E416E000E426E000EFE
:1012BE00436E87EC10F0B70E4B6E000E4C6E67C08F
:1012CE0041F068C042F0000E446E0A0E436EBAEC56
:1012DE0015F041504D6E40EC13F0760E416E000E3F
:1012EE00426E010E436E87EC10F0060E636E300EEA
:1012FE00E82EFED7632EFCD700D0760E416E000E80
:10130E00426E000E436E87EC10F0B70E4B6E000E61
:10131E004C6E65C041F066C042F0000E446E0A0E7F
:10132E00436E5EEC16F041504D6E40EC13F0770EAE
:10133E00416E000E426E010E436E87EC10F0060EEB
:10134E00636E300EE82EFED7632EFCD700D0770EDC
:10135E00416E000E426E000E436E87EC10F0B70E1B
:10136E004B6E000E4C6E65C041F066C042F0000E32
:10137E00446E0A0E436EBAEC15F041504D6E40ECC1
:10138E0013F0780E416E000E426E010E436E87EC26
:10139E0010F0060E636E300EE82EFED7632EFCD7CD
:1013AE0000D0780E416E000E426E000E436E87EC3A
:1013BE0010F0A80E4B6E000E4C6E3E0E4D6E000ED3
:1013CE004E6E1DEC0FF03E28D8B4F0EF09F0F2EFA0
:1013DE0009F012EF0CF0310E3E18D8A4F9EF09F017
:1013EE00FBEF09F0B2EF0BF0790E4B6E000E4C6E68
:1013FE00CEEC14F06D0E4F6E000E506E010E516E4F
:10140E007FEC15F0030E646E080E636E770EE82EF9
:10141E00FED7632EFCD7642EFAD700F06D0E5B6EEE
:10142E00000E5C6E010E5D6E010E5E6E530E5F6EF3
:10143E00100E606E52EC14F0A80E4B6E000E4C6E39
:10144E003D0E4D6E000E4E6E12EC0EF06D0E5B6E7E
:10145E00000E5C6E010E5D6E090E5E6E3DC05FF09D
:10146E0049EC17F0A80E4B6E000E4C6E3C0E4D6EF6
:10147E00000E4E6E12EC0EF06D0E5B6E000E5C6E7C
:10148E00010E5D6E0A0E5E6E3CC05FF049EC17F009
:10149E00060E646E130E636EAE0EE82EFED7632E2E
:1014AE00FCD7642EFAD76D0E4F6E000E506E010EE5
:1014BE00516E7FEC15F00001DE6F6D0E5B6E000E4F
:1014CE005C6E010E5D6E010E5E6E5D0E5F6E100E39
:1014DE00606E52EC14F00001DE6FA80E4B6E000E23
:1014EE004C6E3B0E4D6E000E4E6E12EC0EF0000169
:1014FE00DE6F6D0E5B6E000E5C6E010E5D6E090E84
:10150E005E6E3BC05FF049EC17F0A80E4B6E000EFE
:10151E004C6E3A0E4D6E000E4E6E12EC0EF0000139
:10152E00DE6F6D0E5B6E000E5C6E010E5D6E0A0E52
:10153E005E6E3AC05FF049EC17F00001DE6F060EEA
:10154E00646E130E636EAE0EE82EFED7632EFCD7BE
:10155E00642EFAD76D0E4F6E000E506E010E516E48
:10156E007FEC15F06D0E5B6E000E5C6E010E5D6E07
:10157E00010E5E6E710E5F6E100E606E52EC14F008
:10158E00A80E4B6E000E4C6E390E4D6E000E4E6E4A
:10159E0012EC0EF06D0E5B6E000E5C6E010E5D6E4B
:1015AE00080E5E6E39C05FF049EC17F0A80E4B6E58
:1015BE00000E4C6E380E4D6E000E4E6E12EC0EF08E
:1015CE006D0E5B6E000E5C6E010E5D6E090E5E6E34
:1015DE0038C05FF049EC17F0060E646E130E636EA2
:1015EE00AE0EE82EFED7632EFCD7642EFAD73D50F2
:1015FE000A0DF3CF63F0F4CF64F03C506326000E77
:10160E006422F00E6324016EFD0E6420026E01C092
:10161E0041F002C042F0000E446E3C0E436EBAEC36
:10162E0015F041C0DAF042C0DBF001C041F002C05B
:10163E0042F0000E446E3C0E436E5EEC16F041C05E
:10164E0001F042C002F0B00E416E000E426E01C0BB
:10165E0043F002C044F0C6EC17F03B500A0DF3CF36
:10166E0063F0F4CF64F03A506326000E6422F00E5D
:10167E006324676EFD0E6420686E67C041F068C01B
:10168E0042F0000E446E3C0E436EBAEC15F041C0B3
:10169E00DCF042C0DDF067C041F068C042F0000EE1
:1016AE00446E3C0E436E5EEC16F00001DA5141249E
:1016BE00676EDB514220686E39500A0DF3CF63F02E
:1016CE00F4CF64F038506326000E6422F00E6324CB
:1016DE00656EFD0E6420666E65C041F066C042F018
:1016EE00000E446E180E436E5EEC16F00001DC51D7
:1016FE004124656EDD514220666E790E4B6E000EF2
:10170E004C6E09EC15F06D0E4F6E000E506E010E04
:10171E00516E7FEC15F06D0E5B6E000E5C6E010E61
:10172E005D6E010E5E6E200E5F6E100E606E52ECE0
:10173E0014F06D0E5B6E000E5C6E020E5D6E010E91
:10174E005E6E670E5F6E100E606E52EC14F0230E1E
:10175E003E6E12EF0CF03E066D0E4F6E000E506E8A
:10176E00010E516E7FEC15F0820E636EDE0EE82ECA
:10177E00FED7632EFCD76D0E5B6E000E5C6E010EF7
:10178E005D6E010E5E6E110E5F6E100E606E52EC8F
:10179E0014F03F0E4B6E000E4C6ECEEC14F0060E97
:1017AE00646E130E636EAE0EE82EFED7632EFCD75C
:1017BE00642EFAD73F0E4B6E000E4C6E09EC15F0F0
:1017CE006D0E4F6E000E506E010E516E7FEC15F0C9
:1017DE00820E636EDE0EE82EFED7632EFCD76D0EE4
:1017EE005B6E000E5C6E010E5D6E010E5E6E480E3F
:1017FE005F6E100E606E52EC14F06D0E5B6E000E8E
:10180E005C6E020E5D6E010E5E6E670E5F6E100EEA
:10181E00606E52EC14F0252A320E256419EF0CF08E
:10182E001BEF0CF0A4EF08F0A2EF08F007EF00F0AA
:10183E000600F2A825EF0CF027EF0CF030EF0CF0BD
:10184E00F2A22CEF0CF02EEF0CF030EF0CF038EC87
:10185E0018F0F0A635EF0CF037EF0CF040EF0CF06F
:10186E00F0A03CEF0CF03EEF0CF040EF0CF036EC3D
:10187E0018F0F0A845EF0CF047EF0CF050EF0CF01D
:10188E00F0A24CEF0CF04EEF0CF050EF0CF034ECED
:10189E0018F0F2A655EF0CF057EF0CF072EF0CF0BB
:1018AE00F2A05CEF0CF05EEF0CF072EF0CF081A882
:1018BE0063EF0CF065EF0CF072EF0CF06C04D8A433
:1018CE006BEF0CF06DEF0CF072EF0CF0000E6C6E17
:1018DE00000E02EC18F0F2A677EF0CF079EF0CF098
:1018EE0094EF0CF0F2A07EEF0CF080EF0CF094EF82
:1018FE000CF081B885EF0CF087EF0CF094EF0CF044
:10190E006C50D8A48DEF0CF08FEF0CF094EF0CF020
:10191E00010E6C6E010E02EC18F0F2A699EF0CF0AF
:10192E009BEF0CF0B6EF0CF0F2A0A0EF0CF0A2EFD4
:10193E000CF0B6EF0CF081AAA7EF0CF0A9EF0CF0AB
:10194E00B6EF0CF06B04D8A4AFEF0CF0B1EF0CF0C7
:10195E00B6EF0CF0000E6B6E000EF5EC17F0F2A663
:10196E00BBEF0CF0BDEF0CF0D8EF0CF0F2A0C2EF15
:10197E000CF0C4EF0CF0D8EF0CF081BAC9EF0CF0FC
:10198E00CBEF0CF0D8EF0CF06B50D8A4D1EF0CF0DD
:10199E00D3EF0CF0D8EF0CF0010E6B6E010EF5ECE0
:1019AE0017F0F2A6DDEF0CF0DFEF0CF0FAEF0CF013
:1019BE00F2A0E4EF0CF0E6EF0CF0FAEF0CF081ACD5
:1019CE00EBEF0CF0EDEF0CF0FAEF0CF06A04D8A48C
:1019DE00F3EF0CF0F5EF0CF0FAEF0CF0000E6A6E70
:1019EE00000EE8EC17F0F2A6FFEF0CF001EF0DF091
:1019FE001CEF0DF0F2A006EF0DF008EF0DF01CEF4E
:101A0E000DF081BC0DEF0DF00FEF0DF01CEF0DF092
:101A1E006A50D8A415EF0DF017EF0DF01CEF0DF076
:101A2E00010E6A6E010EE8EC17F0F2A621EF0DF032
:101A3E0023EF0DF03EEF0DF0F2A028EF0DF02AEFA0
:101A4E000DF03EEF0DF081AE2FEF0DF031EF0DF0FA
:101A5E003EEF0DF06904D8A437EF0DF039EF0DF01D
:101A6E003EEF0DF0000E696E000EDBEC17F0F2A6E5
:101A7E0043EF0DF045EF0DF060EF0DF0F2A04AEFE1
:101A8E000DF04CEF0DF060EF0DF081BE51EF0DF04B
:101A9E0053EF0DF060EF0DF06950D8A459EF0DF033
:101AAE005BEF0DF060EF0DF0010E696E010EDBECD9
:101ABE0017F09DAC65EF0DF067EF0DF070EF0DF0C8
:101ACE009EAC6CEF0DF06EEF0DF070EF0DF040EC84
:101ADE0018F0F2AA75EF0DF077EF0DF080EF0DF024
:101AEE00F2A47CEF0DF07EEF0DF080EF0DF026EC02
:101AFE0018F09DA085EF0DF087EF0DF090EF0DF033
:101B0E009EA08CEF0DF08EEF0DF090EF0DF020EC0F
:101B1E0018F09DA295EF0DF097EF0DF0A0EF0DF0E0
:101B2E009EA29CEF0DF09EEF0DF0A0EF0DF02CECB1
:101B3E0018F0A0A2A5EF0DF0A7EF0DF0B0EF0DF08D
:101B4E00A1A2ACEF0DF0AEEF0DF0B0EF0DF01AEC70
:101B5E0018F09DA4B5EF0DF0B7EF0DF0C0EF0DF03E
:101B6E009EA4BCEF0DF0BEEF0DF0C0EF0DF03EECFD
:101B7E0018F0A0A0C5EF0DF0C7EF0DF0D0EF0DF0EF
:101B8E00A1A0CCEF0DF0CEEF0DF0D0EF0DF03CECB0
:101B9E0018F09DA8D5EF0DF0D7EF0DF0E0EF0DF09A
:101BAE009EA8DCEF0DF0DEEF0DF0E0EF0DF03AEC5D
:101BBE0018F09DAAE5EF0DF0E7EF0DF0F0EF0DF048
:101BCE009EAAECEF0DF0EEEF0DF0F0EF0DF042EC03
:101BDE0018F09DA6F5EF0DF0F7EF0DF000EF0EF0FB
:101BEE009EA6FCEF0DF0FEEF0DF000EF0EF030ECC8
:101BFE0018F0A0A605EF0EF007EF0EF010EF0EF0A6
:101C0E00A1A60CEF0EF00EEF0EF010EF0EF032EC70
:101C1E0018F07A921100000E5A6E000E5B6E000ED6
:101C2E00596E000E586E4B504C10D8B421EF0EF07A
:101C3E0023EF0EF02CEF0EF04D504E10D8A42AEFDD
:101C4E000EF02CEF0EF02FEF0EF0000E1CEF0FF03B
:101C5E00000E5A6E000E596E59504B24416E000EF6
:101C6E004C20426E000E436E87EC10F0592A030E84
:101C7E00596444EF0EF046EF0EF033EF0EF05A506B
:101C8E004B24416E000E4C20426E010E436E87ECCB
:101C9E0010F00D0E4F6EFC0EE82EFED74F2EFCD719
:101CAE00000E5B6E5B504B244F6E000E4C20506E40
:101CBE00040E4F24416E000E5020426E580E436E9D
:101CCE00000E446E3EEC12F05B504B244F6E000E35
:101CDE004C20506E040E4F24D96E000E5020DA6E3A
:101CEE00DF30E832E832070B516E5B504B24526EF8
:101CFE00000E4C20536E040E5224D96E000E53204B
:101D0E00DA6EDF50070B546E5450020D9E0EF32404
:101D1E00D96E000EF420DA6EDECF55F0DDCF56F020
:101D2E0055C0D9FF56C0DAFFDF50576E512AA2EFC9
:101D3E000EF0D8905732512EA0EF0EF057A0AAEF0A
:101D4E000EF0ACEF0EF008EF0FF05B504B244F6E21
:101D5E00000E4C20506E040E4F24D96E000E5020F3
:101D6E00DA6EDF30E832E832070B516E5B504B24EF
:101D7E00526E000E4C20536E040E5224D96E000E7D
:101D8E005320DA6EDF50070B546E5450020D9E0E28
:101D9E00F324D96E000EF420DA6EDECF55F0DDCFCF
:101DAE0056F055C0D9FF56C0DAFFDF50576E512A94
:101DBE00E3EF0EF0D8905732512EE1EF0EF057B000
:101DCE00EBEF0EF0EDEF0EF0ACEF0EF05A50040DFF
:101DDE00010EF3244F6E100EF420506E5B504F2602
:101DEE00000E50224FC0F6FF50C0F7FFF86A4DC0EC
:101DFE00D9FF4EC0DAFF0800F5CFDFFF010E1CEF52
:101E0E000FF05B2A030E5B640FEF0FF011EF0FF074
:101E1E0059EF0EF05A2A030E5A6418EF0FF01AEF0C
:101E2E000FF031EF0EF02FEF0EF01200000E586E85
:101E3E004DC0D9FF4EC0DAFFFF0EDF6E4B504C1077
:101E4E00D8B42CEF0FF02EEF0FF037EF0FF04D5000
:101E5E004E10D8A435EF0FF037EF0FF03BEF0FF029
:101E6E00000E536EE3EF0FF0000E576E000E566E1F
:101E7E00000E556E000E546E54504B24416E55504C
:101E8E004C20426E000E436E87EC10F0544A552AD9
:101E9E0055BE5BEF0FF0555009E1040E545CD8A00F
:101EAE005BEF0FF05DEF0FF043EF0FF056504B244A
:101EBE00416E57504C20426E010E436E87EC10F06F
:101ECE00000E5A6E000E596E59504B244F6E5A50DA
:101EDE004C20506E040E4F24416E000E5020426E68
:101EEE00580E436E000E446E3EEC12F0536E5804C4
:101EFE00D8A484EF0FF086EF0FF0C3EF0FF09BEF37
:101F0E000FF059504B244F6E5A504C20506E040E09
:101F1E004F24416E000E5020426E580E436E000E3E
:101F2E00446E3EEC12F0536E5804D8B4A1EF0FF08D
:101F3E00A3EF0FF088EF0FF056C04FF057C050F0E0
:101F4E00D8904F365036D8904F365036010E4F241B
:101F5E00516E100E5020526E595051265A50522228
:101F6E0051C0F6FF52C0F7FFF86A4DC0D9FF4EC000
:101F7E00DAFF0800F5CFDFFF594A5A2A5ABED1EFD1
:101F8E000FF05A5009E1040E595CD8A0D1EF0FF0B2
:101F9E00D3EF0FF06BEF0FF0564A572A57BEE1EF13
:101FAE000FF0575009E1040E565CD8A0E1EF0FF088
:101FBE00E3EF0FF03FEF0FF053501200010E496E9A
:101FCE0041504210D8B4EEEF0FF0F0EF0FF001EFEA
:101FDE0010F041C0D9FF42C0DAFFDF30E832E832FC
:101FEE00070B436E070E4364FFEF0FF001EF10F087
:101FFE0064EF10F0000E496E85EF10F041C0D9FF6E
:10200E0042C0DAFFDF30E832E832070B436E010ED2
:10201E00446E432A15EF10F0D8904436432E13EF3A
:10202E0010F04450FF0A456E41C0D9FF42C0DAFF9E
:10203E00DF50070B466E4650020D940EF324D96EF8
:10204E00000EF420DA6EDECF47F0DDCF48F047C049
:10205E00D9FF48C0DAFF4550DF1685EF10F041C0BA
:10206E00D9FF42C0DAFFDF30E832E832070B436EA9
:10207E00010E446E432A46EF10F0D8904436432E9C
:10208E0044EF10F041C0D9FF42C0DAFFDF50070B1A
:10209E00456E4550020D940EF324D96E000EF420B9
:1020AE00DA6EDECF46F0DDCF47F046C0D9FF47C02F
:1020BE00DAFF4450DF1285EF10F041C0D9FF42C065
:1020CE00DAFFDFBC6DEF10F070EF10F0010E71EF64
:1020DE0010F0000E436E446A4450000AD8B47AEFF2
:1020EE0010F001EF10F04350000AD8B405EF10F0D5
:1020FE00010AD8B436EF10F001EF10F0495012007B
:10210E00010E4A6E41504210D8B490EF10F092EF8B
:10211E0010F0A3EF10F041C0D9FF42C0DAFFDF305C
:10212E00E832E832070B446E070E4464A1EF10F05C
:10213E00A3EF10F006EF11F0000E4A6E1BEF11F038
:10214E0041C0D9FF42C0DAFFDF30E832E832070B78
:10215E00446E010E456E442AB7EF10F0D890453606
:10216E00442EB5EF10F04550FF0A466E41C0D9FF20
:10217E0042C0DAFFDF50070B476E4750020D8A0E42
:10218E00F324D96E000EF420DA6EDECF48F0DDCFE8
:10219E0049F048C0D9FF49C0DAFF4650DF161BEFA1
:1021AE0011F041C0D9FF42C0DAFFDF30E832E83229
:1021BE00070B446E010E456E442AE8EF10F0D890DE
:1021CE004536442EE6EF10F041C0D9FF42C0DAFF8B
:1021DE00DF50070B466E4650020D8A0EF324D96E61
:1021EE00000EF420DA6EDECF47F0DDCF48F047C0A8
:1021FE00D9FF48C0DAFF4550DF121BEF11F04350F4
:10220E00446E456A4550000AD8B410EF11F0A3EFA2
:10221E0010F04450000AD8B4A7EF10F0010AD8B459
:10222E00D8EF10F0A3EF10F04A501200000E586EC7
:10223E0054505510D8A426EF11F028EF11F02CEFC2
:10224E0011F0000E596EB0EF11F054C04BF055C0A6
:10225E004CF0F4EC15F0596E010E54244B6E000E3A
:10226E0055204C6EF4EC15F0596E000E586E585009
:10227E005424566E000E5520576E020E56244B6E89
:10228E00000E57204C6EF4EC15F0582A030E5864CD
:10229E0053EF11F055EF11F03EEF11F0820E566E26
:1022AE00DE0EE82EFED7562EFCD754C04FF055C08A
:1022BE0050F0380E516E7FEC15F0210E566E760EE4
:1022CE00E82EFED7562EFCD700D054C04FF055C086
:1022DE0050F0380E516E7FEC15F0FA0EE82EFED748
:1022EE0054C04FF055C050F0380E516E7FEC15F0C3
:1022FE0054C04FF055C050F0010E516E7FEC15F0EA
:10230E0054C04FF055C050F0020E516E7FEC15F0D8
:10231E0054C04FF055C050F0060E516E7FEC15F0C4
:10232E0054C04FF055C050F00C0E516E7FEC15F0AE
:10233E0054C04FF055C050F0280E516E7FEC15F082
:10234E0054C04FF055C050F0800E516E7FEC15F01A
:10235E00596E59501200000E546E000E556E000E3E
:10236E00536E000E526E4B504C10D8B4C1EF11F09C
:10237E00C3EF11F0CCEF11F04D504E10D8A4CAEFB0
:10238E0011F0CCEF11F0D0EF11F0000E516E3CEFCA
:10239E0012F0000E546E000E536E53504B24416ECD
:1023AE00000E4C20426E000E436E87EC10F0532A46
:1023BE00030E5364E5EF11F0E7EF11F0D4EF11F0D7
:1023CE0054504B24416E000E4C20426E010E436E53
:1023DE0087EC10F0C80E00D0E82EFDD7000E556E1B
:1023EE0055504B244F6E000E4C20506E040E4F2451
:1023FE00416E000E5020426E520E436E000E446E21
:10240E003EEC12F0516E5204D8A410EF12F012EFFF
:10241E0012F02AEF12F05450040D010EF3244F6EF9
:10242E00100EF420506E55504F26000E50224FC005
:10243E00F6FF50C0F7FFF86A4DC0D9FF4EC0DAFF65
:10244E000800F5CFDFFF552A030E556431EF12F069
:10245E0033EF12F0F7EF11F0542A030E54643AEFF3
:10246E0012F03CEF12F0D2EF11F051501200010EAB
:10247E004A6E41504210D8B447EF12F049EF12F0B5
:10248E0063EF12F043504410D8B450EF12F052EFF5
:10249E0012F063EF12F041C0D9FF42C0DAFFDF3015
:1024AE00E832E832070B456E070E456461EF12F015
:1024BE0063EF12F067EF12F0000E4A6E98EF12F013
:1024CE0041C0D9FF42C0DAFFDF30E832E832070BF5
:1024DE00456E41C0D9FF42C0DAFFDF50070B466E92
:1024EE004650020D800EF324D96E000EF420DA6EE3
:1024FE00DECF47F0DDCF48F047C0D9FF48C0DAFF46
:10250E00DF50496E452A8EEF12F0D8904932452E93
:10251E008CEF12F04950010B43C0D9FF44C0DAFFD3
:10252E00DF6E4A501200010E5A6E5706CFEF12F0B0
:10253E0054C04FF055C050F05750800F516E7FEC85
:10254E0015F05A6EECEF12F054C04FF055C050F02B
:10255E005750C00F516E7FEC15F05A6EECEF12F023
:10256E0054C04FF055C050F05750940F516E7FEC41
:10257E0015F05A6EECEF12F054C04FF055C050F0FB
:10258E005750D40F516E7FEC15F05A6EECEF12F0DF
:10259E005650586E596A5950000AD8B4D9EF12F0F5
:1025AE00ECEF12F05850010AD8B49FEF12F0030A64
:1025BE00D8B4ABEF12F0010AD8B4B7EF12F0070A95
:1025CE00D8B4C3EF12F0ECEF12F05A501200445090
:1025DE004510D8A4F5EF12F0F7EF12F0FBEF12F062
:1025EE00000E486E3EEF13F0D59E44C041F045C03C
:1025FE0042F0F2EC16F044C041F045C042F013EC4C
:10260E0014F044C041F045C042F06EEC17F020EEDD
:10261E0004F04450D9264550DA22DECF46F0DDCF05
:10262E0047F047C046F0476A4650D76E20EE04F09A
:10263E004450D9264550DA22DF50D66E20EE04F0F3
:10264E004450D9264550DA22DECF07F0DDCF08F010
:10265E00F28AF29444C0D9FF45C0DAFFDECFD0F043
:10266E00DDCFD1F0F28EF28CD58E010E486E485031
:10267E0012004B504C10D8A447EF13F049EF13F053
:10268E0055EF13F0090E4D644FEF13F051EF13F0A9
:10269E0055EF13F0000E4E6E88EF13F04BC041F065
:1026AE004CC042F04D50010B436E87EC10F04E6E55
:1026BE00010E4B24416E000E4C20426ED8904D30D0
:1026CE00010B436E87EC10F04E6E020E4B24416EE2
:1026DE00000E4C20426E4D40E8423F0B010B436E04
:1026EE0087EC10F04E6E030E4B24416E000E4C2004
:1026FE00426E4D38E8461F0B010B436E87EC10F00F
:10270E004E6E4E501200A80E4F6E000E506ED3EC51
:10271E0013F0B00E446E000E456EEEEC12F06D0E20
:10272E00546E000E556E1DEC11F0780E4B6E000EB1
:10273E004C6EF4EC15F0770E4B6E000E4C6EF4EC06
:10274E0015F0760E4B6E000E4C6EF4EC15F0750E09
:10275E004B6E000E4C6EF4EC15F0740E4B6E000EBC
:10276E004C6EF4EC15F0730E4B6E000E4C6EF4ECDA
:10277E0015F0B70E4F6E000E506EC1EC16F03F0EF8
:10278E004F6E000E506E90EC14F0790E4F6E000EE0
:10279E00506E90EC14F01200000E546E000E556E3A
:1027AE004F505010D8A4DEEF13F0E0EF13F0E4EF2B
:1027BE0013F0000E536E11EF14F0000E546E5450C1
:1027CE004F244B6E000E50204C6EF4EC15F0542A34
:1027DE00030E5464F5EF13F0F7EF13F0E6EF13F07A
:1027EE00000E556E55504F24516E000E5020526EF5
:1027FE00040E5124416E000E5220426EE5EC0FF095
:10280E00536E552A030E55640FEF14F011EF14F0AA
:10281E00F9EF13F05350120020EE06F04150D92676
:10282E004250DA22DFA41EEF14F020EF14F023EF53
:10283E0014F0D59A51EF14F020EE06F04150D9263F
:10284E004250DA22DFB42EEF14F030EF14F051EFD5
:10285E0014F0D58A20EE06F04150D9264250DA22E5
:10286E00DFA23CEF14F03EEF14F041EF14F0D598D8
:10287E0051EF14F020EE06F04150D9264250DA22E4
:10288E00DFB24CEF14F04EEF14F051EF14F0D58888
:10289E0051EF14F01200000E616E5B505C10D8A464
:1028AE005BEF14F05DEF14F061EF14F0000E626E4A
:1028BE008EEF14F05BC054F05CC055F05DC056F066
:1028CE005EC057F09AEC12F0626E7FEF14F05BC0B0
:1028DE004FF05CC050F05FC0F6FF60C0F7FFF86AC3
:1028EE000800F5CF51F044EC15F0626E5F4A602A95
:1028FE005FC0F6FF60C0F7FFF86A0800F5500009E8
:10290E00D8A48CEF14F08EEF14F06EEF14F062502A
:10291E001200010E526E4F505010D8A499EF14F0C1
:10292E009BEF14F09FEF14F0000E526ECCEF14F0EC
:10293E002DC053F04FC0D9FF50C0DAFFDF500F0B40
:10294E00516E53505118F80B5118536E4FC0D9FF9A
:10295E0050C0DAFFDF38070B516E514651465146D3
:10296E0053505118C70B5118536E539C4FC0D9FF7B
:10297E0050C0DAFFDFAE02D0538E01D0539E530EFD
:10298E004B6E000E4C6EF4EC15F0525012004B5084
:10299E004C10D8A4D5EF14F0D7EF14F0D9EF14F0F3
:1029AE0008EF15F02CC04EF04BC0D9FF4CC0DAFF2B
:1029BE00DF500F0B4D6E4E504D18F80B4D184E6EDE
:1029CE004BC0D9FF4CC0DAFFDF38070B4D6E4D46BA
:1029DE004D464D464E504D18C70B4D184E6E4E9CE3
:1029EE004BC0D9FF4CC0DAFFDFAE02D04E8E01D005
:1029FE004E9E4E0E416E000E426E010E436E87ECE1
:102A0E0010F012004B504C10D8A410EF15F012EF2E
:102A1E0015F014EF15F043EF15F02BC04EF04BC030
:102A2E00D9FF4CC0DAFFDF500F0B4D6E4E504D18D4
:102A3E00F80B4D184E6E4BC0D9FF4CC0DAFFDF3885
:102A4E00070B4D6E4D464D464D464E504D18C70B1D
:102A5E004D184E6E4E9C4BC0D9FF4CC0DAFFDFAE08
:102A6E0002D04E8E01D04E9E4E0E416E000E426E24
:102A7E00000E436E87EC10F01200000E526E4F5097
:102A8E005010D8A44DEF15F04FEF15F053EF15F091
:102A9E00000E536E7DEF15F04FC041F050C042F066
:102AAE00010E436E87EC10F0536E4FC04BF050C0CA
:102ABE004CF051380F0B4D6E2AEC16F0536E4FC082
:102ACE004BF050C04CF0ABEC17F0536E4FC04BF0C8
:102ADE0050C04CF051C04DF02AEC16F0536E4FC062
:102AEE004BF050C04CF0ABEC17F0536E535012003D
:102AFE00000E526E4F505010D8A488EF15F08AEF8A
:102B0E0015F08EEF15F0000E536EB8EF15F04FC0A6
:102B1E0041F050C042F0000E436E87EC10F0536E41
:102B2E004FC04BF050C04CF051380F0B4D6E2AEC8D
:102B3E0016F0536E4FC04BF050C04CF0ABEC17F08C
:102B4E00536E4FC04BF050C04CF051C04DF02AECBC
:102B5E0016F0536E4FC04BF050C04CF0ABEC17F06C
:102B6E00536E53501200000E476E000E466E4350C9
:102B7E004410D8B4C5EF15F0C7EF15F0EFEF15F010
:102B8E00010E456ECFEF15F0D89043364436452AE8
:102B9E0044AED4EF15F0D6EF15F0CBEF15F0D8907C
:102BAE00463647364350415C44504258D8A0E2EF77
:102BBE0015F0E4EF15F0E9EF15F04350415E445087
:102BCE00425A4680D89044324332452ED6EF15F005
:102BDE0046C041F047C042F012004B504C10D8B4E2
:102BEE00FBEF15F0FDEF15F00EEF16F04BC0D9FF11
:102BFE004CC0DAFFDF30E832E832070B4D6E070EBD
:102C0E004D640CEF16F00EEF16F012EF16F0000EEC
:102C1E004E6E28EF16F04BC041F04CC042F0E5EC82
:102C2E000FF04E6E4BC041F04CC042F04BC0D9FF7E
:102C3E004CC0DAFF000EDFBE010E436E87EC10F0C3
:102C4E004E6E4E501200020E4B24416E000E4C2062
:102C5E00426E4D50010B436E87EC10F0030E4B2469
:102C6E00416E000E4C20426ED8904D30010B436EDB
:102C7E0087EC10F0040E4B24416E000E4C20426E79
:102C8E004D40E8423F0B010B436E87EC10F0050EF2
:102C9E004B24416E000E4C20426E4D38E8461F0B01
:102CAE00010B436E87EC10F04E6E4E5012004350E7
:102CBE004410D8B465EF16F067EF16F08BEF16F0F0
:102CCE00010E456E6FEF16F0D89043364436452A06
:102CDE0044AE74EF16F076EF16F06BEF16F043502D
:102CEE00415C44504258D8A07FEF16F081EF16F0A9
:102CFE0085EF16F04350415E4450425AD89044320C
:102D0E004332452E76EF16F041C041F042C042F0FC
:102D1E0012001A0EF66E2F0EF76E000EF86E00EE03
:102D2E0080F010EE3CF00900F5CFEEFFE550E150DB
:102D3E00FAE11E0EF66E300EF76E000EF86E00EE15
:102D4E0065F010EE15F00900F5CFEEFFE550E150FD
:102D5E00FAE100EEBCF01E0EEE6AE806FDE100EEB2
:102D6E0001F03F0EEE6AE806FDE17A907A920001DC
:102D7E003FEF08F04F505010D8A4C8EF16F0CAEF2E
:102D8E0016F0CEEF16F0000E516EF0EF16F04FC0AB
:102D9E004BF050C04CF0F4EC15F0516E010E4F2478
:102DAE004B6E000E50204C6EF4EC15F0516E020E70
:102DBE004F244B6E000E50204C6EF4EC15F0516EFD
:102DCE00030E4F244B6E000E50204C6EF4EC15F09B
:102DDE00516E5150120020EE06F04150D92642504D
:102DEE00DA22DFA0FDEF16F0FFEF16F00FEF17F06F
:102DFE00D59620EE03F04150D9264250DA22DF500C
:102E0E00436ED5504318F80B4318D56E1DEF17F0CF
:102E1E0020EE06F04150D9264250DA22DFB01AEFEA
:102E2E0017F01CEF17F01DEF17F0D5861200000EED
:102E3E00476E000E486E41504210D8A429EF17F08D
:102E4E002BEF17F02FEF17F0000E496E47EF17F02C
:102E5E00D6CF47F0D7CF48F0475048C045F0466A26
:102E6E0045C046F0456A4526000E462243C0D9FFAE
:102E7E0044C0DAFF45C0DEFF46C0DDFF010E496EDD
:102E8E0049501200000E606E5B505C10D8A452EFD9
:102E9E0017F054EF17F058EF17F0000E616E6CEF4D
:102EAE0017F05BC054F05CC055F05DC056F05EC0CC
:102EBE0057F09AEC12F0616E5BC04FF05CC050F0B0
:102ECE005FC051F044EC15F0616E6150120020EEBF
:102EDE0006F04150D9264250DA22DFA679EF17F0DC
:102EEE007BEF17F07EEF17F0D58C8CEF17F020EEFE
:102EFE0006F04150D9264250DA22DFB689EF17F09C
:102F0E008BEF17F08CEF17F0D59C1200800F810F0E
:102F1E00820F830F840F890F8A0F8B0F8C0F8D0FEB
:102F2E00920F930F940F950F960F800F810F820FB4
:102F3E00830F840F030B131B636B737B0000000066
:102F4E00000002020A121A00010E4B24416E000EFE
:102F5E004C20426E010E436E87EC10F0080EE82EE8
:102F6E00FED700F0010E4B24416E000E4C20426E37
:102F7E00000E436E87EC10F04D6E4D501200415016
:102F8E004210D8A4CDEF17F0CFEF17F0D3EF17F014
:102F9E00000E456ED9EF17F04450D76E43C0D6FFE2
:102FAE00010E456E45501200406EF2904050D8A46E
:102FBE00E3EF17F0E5EF17F0E7EF17F0E7EF17F095
:102FCE001200406EF2904050D8A4F0EF17F0F2EFDE
:102FDE0017F0F4EF17F0F4EF17F01200406EF290C6
:102FEE004050D8A4FDEF17F0FFEF17F001EF18F0E7
:102FFE0001EF18F01200406EF2904050D8A40AEF84
:10300E0018F00CEF18F00EEF18F00EEF18F012008B
:10301E0017003B0001010101040C222A323A29213A
:05302E00191109011059
:10303400A1920450B36E03C0B2FF12009E900650DA
:10304400CF6E05C0CEFF1200F2940850D76E07C0B1
:10305400D6FF12009E9226C0CCFF12009E9612004C
:10306400A1961200F0921200F0901200F292120057
:103074009D981200A19012009E9412009E9C120032
:02308400120038
:020000040020DA
:08000000FFFFFFFFFFFFFFFF00
:020000040030CA
:0E000000FF02091EFF8181FF0FC00FE00F40BD
:00000001FF
