:100000000C942A000C9447000C9447000C94470071
:100010000C9447000C94751F0C9447000C944700F7
:100020000C9447000C9447000C9447000C94470034
:100030000C9447000C9447000C9447000C94470024
:100040000C9447000C9447000C9447000C94470014
:100050000C94470011241FBECFE5D8E0DEBFCDBF12
:1000600010E0A0E6B0E0E2EAFFE302C005900D92E6
:10007000A43CB107D9F710E0A4ECB0E001C01D9298
:10008000AA3CB107E1F70E9442140C94CF1F0C94D4
:100090000000EF92FF920F931F937B018C0120E0F1
:1000A00030E040E05FE40E94490388238CF0C801FF
:1000B000B70120E030E040E05FE40E94C1010E940F
:1000C000A9039B01AC01205030404040504806C07D
:1000D000C801B7010E94A9039B01AC01B901CA0183
:1000E0001F910F91FF90EF900895A0E0B0E0EBE733
:1000F000F0E00C94981FDC012B01FA019C919230E6
:1001000008F439C1EB018881823008F433C194309E
:1001100069F4843009F02FC111969C91119789815F
:10012000981709F428C1A1EAB0E025C1843009F488
:1001300021C18230A9F4923009F01DC19A01AD01AC
:1001400088E0EA010990AE01E90109929E0181501F
:10015000C1F7E201898111969C918923818308C1AD
:10016000923009F407C112962D903C901397EB0141
:100170008A819B811496AD90BD90CD90DC901797AD
:10018000EC80FD800E811F819101281B390BB90184
:1001900037FF04C066277727621B730B6032710537
:1001A0000CF061C0121613066CF537014801062EDB
:1001B00004C096948794779467940A94D2F721E0C8
:1001C00030E040E050E004C0220F331F441F551FB1
:1001D0006A95D2F721503040404050402E213F21B7
:1001E00040235123211531054105510521F021E01E
:1001F00030E040E050E079018A01E628F72808293C
:1002000019293CC0232BD1F1260E371E350146019A
:10021000062E04C096948794779467940A94D2F734
:1002200021E030E040E050E004C0220F331F441FC3
:10023000551F6A95D2F721503040404050402A2146
:100240003B214C215D21211531054105510521F04E
:1002500021E030E040E050E059016A01A628B728CB
:10026000C828D9280BC0821593052CF01C01AA249C
:10027000BB24650103C0EE24FF24870111969C91E5
:10028000D20111968C91981709F445C0992339F041
:10029000A80197012A193B094C095D0906C0A6016E
:1002A00095012E193F09400B510B57FD08C01182D3
:1002B0003382228224833583468357831DC081E0A5
:1002C00081833382228288279927DC01821B930B4A
:1002D000A40BB50B84839583A683B7830DC0220F2F
:1002E000331F441F551F24833583468357838281E0
:1002F000938101979383828324813581468157813D
:10030000DA01C9010197A109B1098F5F9F4FAF4F72
:10031000BF4328F30BC0918333822282EA0CFB1C7B
:100320000C1D1D1DE482F5820683178383E0808304
:10033000248135814681578157FF1AC0C901AA27F8
:1003400097FDA095BA2F81709070A070B0705695EF
:10035000479537952795822B932BA42BB52B848318
:100360009583A683B7838281938101969383828349
:10037000DF0101C0D201CD01CDB7DEB7E2E10C94BF
:10038000B41FA0E2B0E0E7ECF1E00C94A41F698395
:100390007A838B839C832D833E834F835887E9E048
:1003A000EE2EF12CEC0EFD1ECE010196B7010E943F
:1003B000D2048E010F5E1F4FCE010596B8010E9438
:1003C000D2048A8991E089278A8BC701B801AE01DE
:1003D000475E5F4F0E9475000E94FD03A096E6E015
:1003E0000C94C01FA0E2B0E0E8EFF1E00C94A41F71
:1003F00069837A838B839C832D833E834F835887C5
:10040000F9E0EF2EF12CEC0EFD1ECE010196B701A6
:100410000E94D2048E010F5E1F4FCE010596B801D7
:100420000E94D204C701B801AE01475E5F4F0E942F
:1004300075000E94FD03A096E6E00C94C01FA0E2A8
:10044000B0E0E5E2F2E00C94981F69837A838B8335
:100450009C832D833E834F835887CE010196BE0136
:10046000675F7F4F0E94D204CE010596BE016F5E8A
:100470007F4F0E94D2049985923088F0898982301A
:10048000C8F0943019F4823051F404C0843029F457
:10049000923081F481EA90E0C6C0923049F420E0C5
:1004A0009A858A89981321E02A87CE010996BBC0D4
:1004B000823049F420E09A858A89981321E02A8BBA
:1004C000CE014196B0C02D843E844F8458886D88FB
:1004D0007E888F88988CEE24FF248701AA24BB2471
:1004E000650140E050E060E070E0E0E0F0E0C10174
:1004F00081709070892BE9F0E60CF71C081D191D1E
:100500009A01AB012A0D3B1D4C1D5D1D80E090E062
:10051000A0E0B0E0E614F7040805190520F481E036
:1005200090E0A0E0B0E0BA01A901480F591F6A1F8E
:100530007B1FAA0CBB1CCC1CDD1C97FE08C081E0F5
:1005400090E0A0E0B0E0A82AB92ACA2ADB2A3196B6
:10055000E032F10549F0660C771C881C991C569412
:10056000479437942794C3CFFA85EA892B893C892D
:100570008B859C85280F391F2E5F3F4F17C0CA01FE
:1005800081709070892B61F016950795F794E79428
:1005900080E090E0A0E0B0E8E82AF92A0A2B1B2BC3
:1005A00076956795579547952F5F3F4F77FDE7CF36
:1005B0000CC0440F551F661F771F17FD4160EE0CDE
:1005C000FF1C001F111F21503040403090E05907A0
:1005D00090E0690790E4790760F32B8F3C8FDB0193
:1005E000CA018F779070A070B07080349105A1051A
:1005F000B10561F447FD0AC0E114F10401051105DC
:1006000029F0405C5F4F6F4F7F4F40781A8EFE1786
:1006100011F081E08A8F4D8F5E8F6F8F78A383E01A
:10062000898FCE0149960E94FD03A096E2E10C94C9
:10063000B41FA8E1B0E0EFE1F3E00C94A41F6983DC
:100640007A838B839C832D833E834F83588789E0F5
:10065000E82EF12CEC0EFD1ECE010196B7010E9492
:10066000D2048E010F5E1F4FCE010596B8010E9485
:10067000D2048985823040F08989823028F0C70110
:10068000B8010E944A0501C08FEF6896E6E00C941D
:10069000C01FA8E1B0E0EFE4F3E00C94A41F69836D
:1006A0007A838B839C832D833E834F83588789E095
:1006B000E82EF12CEC0EFD1ECE010196B7010E9432
:1006C000D2048E010F5E1F4FCE010596B8010E9425
:1006D000D2048985823040F08989823028F0C701B0
:1006E000B8010E944A0501C08FEF6896E6E00C94BD
:1006F000C01FA8E1B0E0EFE7F3E00C94A41F69830A
:100700007A838B839C832D833E834F83588789E034
:10071000E82EF12CEC0EFD1ECE010196B7010E94D1
:10072000D2048E010F5E1F4FCE010596B8010E94C4
:10073000D2048985823040F08989823028F0C7014F
:10074000B8010E944A0501C081E06896E6E00C9479
:10075000C01FACE0B0E0EFEAF3E00C94A81F69839F
:100760007A838B839C83CE010196BE016B5F7F4FA2
:100770000E94D2048D81823061F1823050F1843048
:1007800021F48E81882351F12EC02F81388537FDC9
:1007900020C06E812F3131051CF06623F9F023C093
:1007A0008EE190E0821B930B29853A854B855C8511
:1007B00004C056954795379527958A95D2F76623B5
:1007C000B1F050954095309521953F4F4F4F5F4F79
:1007D0000EC020E030E040E050E009C02FEF3FEFD6
:1007E0004FEF5FE704C020E030E040E050E8B9019F
:1007F000CA012C96E2E00C94C41FDF92EF92FF92A4
:100800000F931F93FC01E480F58006811781D1804E
:100810008081823048F480E090E0A0E1B0E0E82AF6
:10082000F92A0A2B1B2BA5C0843009F49FC0823003
:1008300021F4EE24FF24870105C0E114F104010531
:10084000110519F4E0E0F0E096C0628173819FEF3A
:10085000623879070CF05BC022E83FEF261B370BAC
:100860002A3131052CF020E030E040E050E02AC091
:10087000B801A701022E04C0769567955795479554
:100880000A94D2F781E090E0A0E0B0E004C0880FC5
:10089000991FAA1FBB1F2A95D2F70197A109B10979
:1008A0008E219F21A023B1230097A105B10521F03E
:1008B00081E090E0A0E0B0E09A01AB01282B392B59
:1008C0004A2B5B2BDA01C9018F779070A070B07052
:1008D00080349105A105B10539F427FF09C0205CDA
:1008E0003F4F4F4F5F4F04C0215C3F4F4F4F5F4F13
:1008F000E0E0F0E02030A0E03A07A0E04A07A0E402
:100900005A0710F0E1E0F0E079018A0127C0603871
:10091000710564F5FB01E158FF4FD801C7018F77DE
:100920009070A070B07080349105A105B10539F4C4
:10093000E7FE0DC080E490E0A0E0B0E004C08FE3EB
:1009400090E0A0E0B0E0E80EF91E0A1F1B1F17FFA1
:1009500005C016950795F794E794319687E01695AC
:100960000795F794E7948A95D1F705C0EE24FF2404
:100970008701EFEFF0E06E2F679566276795902F60
:100980009F77D794DD24D7948E2F8695492F462BB9
:10099000582F5D29B701CA011F910F91FF90EF9069
:1009A000DF900895FC01DB01408151812281622F9B
:1009B0006F7770E0221F2227221F9381892F880FD3
:1009C000822B282F30E0991F9927991F11969C930D
:1009D000119721153105A9F54115510561057105DD
:1009E00011F482E037C082E89FEF13969C938E93B8
:1009F00012979A01AB0167E0220F331F441F551F66
:100A00006A95D1F783E08C930DC0220F331F441FEA
:100A1000551F12968D919C911397019713969C9355
:100A20008E931297203080E0380780E0480780E4FA
:100A3000580758F314962D933D934D935C93179755
:100A400008952F3F310579F4411551056105710570
:100A500019F484E08C93089564FF03C081E08C93C3
:100A600012C01C9210C02F57304013963C932E9307
:100A7000129783E08C9387E0440F551F661F771F02
:100A80008A95D1F7706414964D935D936D937C9322
:100A9000179708951F93DC01FB019C91923008F495
:100AA00047C08081823008F443C0943051F41196DD
:100AB0001C91843099F58181682F70E0611B710968
:100AC0003FC0843021F0923031F48230B9F181811D
:100AD000882389F12DC011961C9111978230F1F075
:100AE00081811817D9F412962D913C911397828128
:100AF00093818217930794F028173907BCF0149656
:100B00008D919D910D90BC91A02D248135814681C0
:100B10005781281739074A075B0718F4112341F05A
:100B20000AC082179307A407B50740F4112319F0F0
:100B300061E070E005C06FEF7FEF02C060E070E041
:100B4000CB011F910895DF93CF93CDB7DEB7A2E419
:100B5000B0E0E2E4F0E0808188608C93A5E4B0E04E
:100B6000E5E4F0E0808181608C93A5E4B0E0E5E409
:100B7000F0E0808184608C937894A9E5B0E0E9E5A9
:100B8000F0E0808180648C93CF91DF910895DF93B2
:100B9000CF93CDB7DEB7A3E5B0E0E3E5F0E0808129
:100BA00088608C93ECE5F0E080E58083A3E5B0E01D
:100BB000E3E5F0E0808181608C93A3E5B0E0E3E5BC
:100BC000F0E0808184608C937894A9E5B0E0E9E559
:100BD000F0E0808182608C93CF91DF910895DF9364
:100BE000CF93CDB7DEB7A7E3B0E0E7E3F0E08081D5
:100BF00088608C93A3E5B0E0E3E5F0E08081886055
:100C00008C93ECE5F0E080E48083A3E5B0E0E3E5DD
:100C1000F0E0808181608C93A3E5B0E0E3E5F0E053
:100C2000808184608C93A3E5B0E0E3E5F0E080810F
:100C300080618C93CF91DF910895DF93CF93CDB7EF
:100C4000DEB7A7E3B0E0E7E3F0E0808188608C9353
:100C5000A3E5B0E0E3E5F0E0808180648C93A3E558
:100C6000B0E0E3E5F0E0808188608C93ECE5F0E0B3
:100C700080E48083A3E5B0E0E3E5F0E0808181607B
:100C80008C93A3E5B0E0E3E5F0E0808184608C9391
:100C9000A3E5B0E0E3E5F0E0808180618C93A3E51B
:100CA000B0E0E3E5F0E0808180628C93CF91DF914A
:100CB0000895DF93CF93CDB7DEB7A7E3B0E0E7E3C6
:100CC000F0E0808188608C93A3E5B0E0E3E5F0E09C
:100CD000808180648C93ECE5F0E080E48083A3E580
:100CE000B0E0E3E5F0E0808181608C93A3E5B0E0C3
:100CF000E3E5F0E0808184608C93A3E5B0E0E3E578
:100D0000F0E0808180618C93A3E5B0E0E3E5F0E062
:100D1000808180628C93CF91DF910895DF93CF9390
:100D200000D0CDB7DEB789836A8389816A8141E0CB
:100D30000E94720E0F900F90CF91DF910895DF9374
:100D4000CF9300D0CDB7DEB789836A8389816A816A
:100D500041E00E94560F0F900F90CF91DF910895C0
:100D6000DF93CF9300D0CDB7DEB789836A838981C3
:100D70006A8140E00E94560F0F900F90CF91DF9153
:100D80000895DF93CF9300D0CDB7DEB789836A8310
:100D900089816A810E94E6100F900F90CF91DF91B8
:100DA00008950F931F93DF93CF93CDB7DEB7C4554C
:100DB000D0400FB6F894DEBF0FBECDBFFE01EF5A94
:100DC000FF4F80E090E0A8E4B3E480839183A283A6
:100DD000B3838E01035B1F4FFE01EF5AFF4F60810B
:100DE00071818281938120E030E04AEF54E40E94D7
:100DF0001F02DC01CB01F80180839183A283B383BE
:100E0000FE01E35BFF4F608171818281938120E06D
:100E100030E040E85FE30E947903882344F4FE0158
:100E2000E55BFF4F81E090E09183808364C0FE0129
:100E3000E35BFF4F608171818281938120E03FEF0E
:100E40004FE757E40E94190318160CF043C0FE0147
:100E5000EF5AFF4F608171818281938120E030E001
:100E600040E251E40E941F02DC01CB018E01055BD0
:100E70001F4FBC01CD010E944900DC01CB01F801EC
:100E8000918380831FC0FE01E75BFF4F88EC90E0F9
:100E900091838083FE01E75BFF4F80819181019701
:100EA000F1F7FE01E75BFF4F91838083DE01A55BD5
:100EB000BF4FFE01E55BFF4F808191810197119645
:100EC0009C938E93FE01E55BFF4F8081918100979B
:100ED000D1F627C08E01055B1F4FFE01E35BFF4F7C
:100EE00060817181828193810E944900DC01CB0184
:100EF000F80191838083DE01A95BBF4FFE01E55BB2
:100F0000FF4F808191818D939C93FE01E95BFF4FA0
:100F1000808191810197F1F7FE01E95BFF4F918399
:100F2000808381E464E041E00E94720E81E465E028
:100F300041E00E94720E81E466E041E00E94720E80
:100F400081E467E041E00E94720E81E460E041E0EC
:100F50000E94720E81E461E041E00E94720E81E421
:100F600062E041E00E94720E81E461E040E00E9494
:100F7000560F82E00E94220BFE01ED5BFF4F80E0E6
:100F800090E0A0E2B1E480839183A283B3838E01D9
:100F9000015C1F4FFE01ED5BFF4F6081718182811B
:100FA000938120E030E04AEF54E40E941F02DC010C
:100FB000CB01F80180839183A283B383FE01FF9666
:100FC000608171818281938120E030E040E85FE3BD
:100FD0000E94790388232CF481E090E09EAF8DAFCE
:100FE00046C0FE01FF96608171818281938120E07D
:100FF0003FEF4FE757E40E941903181664F5FE010E
:10100000ED5BFF4F608171818281938120E030E050
:1010100040E251E40E941F02DC01CB01BC01CD0182
:101020000E944900DC01CB019EAF8DAF0FC088EC60
:1010300090E09CAF8BAF8BAD9CAD0197F1F79CAF6F
:101040008BAF8DAD9EAD01979EAF8DAF8DAD9EAD3B
:10105000009769F716C0FE01FF9660817181828159
:1010600093810E944900DC01CB019EAF8DAF8DAD15
:101070009EAD9AAF89AF89AD9AAD0197F1F79AAF5E
:1010800089AF88E20E94220B80E090E0A0E8BFE3F5
:101090008DAB9EABAFABB8AF6DA97EA98FA998AD54
:1010A00020E030E04AEF54E40E941F02DC01CB0153
:1010B00089AB9AABABABBCAB69A97AA98BA99CA94C
:1010C00020E030E040E85FE30E94790388232CF4BD
:1010D00081E090E098AB8FA73FC069A97AA98BA95E
:1010E0009CA920E03FEF4FE757E40E941903181630
:1010F0004CF56DA97EA98FA998AD20E030E040E2C3
:1011000051E40E941F02DC01CB01BC01CD010E9411
:101110004900DC01CB0198AB8FA70FC088EC90E0B1
:101120009EA78DA78DA59EA50197F1F79EA78DA7D8
:101130008FA598A9019798AB8FA78FA598A900971D
:1011400069F714C069A97AA98BA99CA90E944900D2
:10115000DC01CB0198AB8FA78FA598A99CA78BA783
:101160008BA59CA50197F1F79CA78BA78EE00E9409
:10117000220B80E090E0A0E8BFE38FA398A7A9A787
:10118000BAA76FA178A589A59AA520E030E04AEF1B
:1011900054E40E941F02DC01CB018BA39CA3ADA3EE
:1011A000BEA36BA17CA18DA19EA120E030E040E810
:1011B0005FE30E94790388232CF481E090E09AA3F6
:1011C00089A33FC06BA17CA18DA19EA120E03FEF30
:1011D0004FE757E40E94190318164CF56FA178A544
:1011E00089A59AA520E030E040E251E40E941F0268
:1011F000DC01CB01BC01CD010E944900DC01CB0127
:101200009AA389A30FC088EC90E098A38F8F8F8D4D
:1012100098A10197F1F798A38F8F89A19AA10197BF
:101220009AA389A389A19AA1009769F714C06BA119
:101230007CA18DA19EA10E944900DC01CB019AA353
:1012400089A389A19AA19E8F8D8F8D8D9E8D0197E7
:10125000F1F79E8F8D8F81E00E94220B80E090E05D
:10126000A0E2B1E4898F9A8FAB8FBC8F698D7A8DA4
:101270008B8D9C8D20E030E04AEF54E40E941F02E9
:10128000DC01CB018D8B9E8BAF8BB88F6D897E89F6
:101290008F89988D20E030E040E85FE30E94790379
:1012A00088232CF481E090E09C8B8B8B3FC06D8970
:1012B0007E898F89988D20E03FEF4FE757E40E94A9
:1012C000190318164CF5698D7A8D8B8D9C8D20E055
:1012D00030E040E251E40E941F02DC01CB01BC017E
:1012E000CD010E944900DC01CB019C8B8B8B0FC090
:1012F00088EC90E09A8B898B89899A890197F1F71C
:101300009A8B898B8B899C8901979C8B8B8B8B8982
:101310009C89009769F714C06D897E898F89988DA3
:101320000E944900DC01CB019C8B8B8B8B899C89B3
:10133000988B8F878F8598890197F1F7988B8F8786
:1013400086E00E94220B80E090E0A0E8BFE38B875C
:101350009C87AD87BE876B857C858D859E8520E0CB
:1013600030E04AEF54E40E941F02DC01CB018F837E
:101370009887A987BA876F81788589859A8520E0C3
:1013800030E040E85FE30E94790388232CF481E099
:1013900090E09E838D833FC06F81788589859A8593
:1013A00020E03FEF4FE757E40E94190318164CF571
:1013B0006B857C858D859E8520E030E040E251E4A0
:1013C0000E941F02DC01CB01BC01CD010E9449003B
:1013D000DC01CB019E838D830FC088EC90E09C8361
:1013E0008B838B819C810197F1F79C838B838D810B
:1013F0009E8101979E838D838D819E81009769F7E1
:1014000014C06F81788589859A850E944900DC0126
:10141000CB019E838D838D819E819A83898389816F
:101420009A810197F1F79A838983CC5ADF4F0FB6DF
:10143000F894DEBF0FBECDBFCF91DF911F910F910A
:101440000895DF93CF93CDB7DEB76C970FB6F894BE
:10145000DEBF0FBECDBF81E460E041E00E94560FC9
:1014600080E090E0A0E0B0E4898F9A8FAB8FBC8FD2
:10147000698D7A8D8B8D9C8D20E030E04AEF54E4AD
:101480000E941F02DC01CB018D8B9E8BAF8BB88F2E
:101490006D897E898F89988D20E030E040E85FE398
:1014A0000E94790388232CF481E090E09C8B8B8B45
:1014B0003FC06D897E898F89988D20E03FEF4FE78F
:1014C00057E40E94190318164CF5698D7A8D8B8D9F
:1014D0009C8D20E030E040E251E40E941F02DC01DC
:1014E000CB01BC01CD010E944900DC01CB019C8BEA
:1014F0008B8B0FC088EC90E09A8B898B89899A89B5
:101500000197F1F79A8B898B8B899C8901979C8B2A
:101510008B8B8B899C89009769F714C06D897E89B4
:101520008F89988D0E944900DC01CB019C8B8B8BAD
:101530008B899C89988B8F878F8598890197F1F784
:10154000988B8F8781E460E040E00E94560F80E036
:1015500090E0A0E0B0E48B879C87AD87BE876B8569
:101560007C858D859E8520E030E04AEF54E40E9422
:101570001F02DC01CB018F839887A987BA876F810F
:10158000788589859A8520E030E040E85FE30E9415
:10159000790388232CF481E090E09E838D833FC003
:1015A0006F81788589859A8520E03FEF4FE757E482
:1015B0000E94190318164CF56B857C858D859E85D8
:1015C00020E030E040E251E40E941F02DC01CB0148
:1015D000BC01CD010E944900DC01CB019E838D83BB
:1015E0000FC088EC90E09C838B838B819C8101975A
:1015F000F1F79C838B838D819E8101979E838D83E0
:101600008D819E81009769F714C06F8178858985E7
:101610009A850E944900DC01CB019E838D838D81D8
:101620009E819A83898389819A810197F1F79A83B0
:1016300089836C960FB6F894DEBF0FBECDBFCF91F5
:10164000DF910895DF93CF93CDB7DEB72F970FB615
:10165000F894DEBF0FBECDBF8F878F85982F9295F0
:101660009F7081E4692F0E94801381E462E040E072
:101670000E94560F0E94210A81E46F850E94801308
:1016800081E462E040E00E94560F0E94210A80E05F
:1016900090E0A0E8BFE38B879C87AD87BE876B8512
:1016A0007C858D859E8520E030E04AEF54E40E94E1
:1016B0001F02DC01CB018F839887A987BA876F81CE
:1016C000788589859A8520E030E040E85FE30E94D4
:1016D000790388232CF481E090E09E838D833FC0C2
:1016E0006F81788589859A8520E03FEF4FE757E441
:1016F0000E94190318164CF56B857C858D859E8597
:1017000020E030E040E251E40E941F02DC01CB0106
:10171000BC01CD010E944900DC01CB019E838D8379
:101720000FC088EC90E09C838B838B819C81019718
:10173000F1F79C838B838D819E8101979E838D839E
:101740008D819E81009769F714C06F8178858985A6
:101750009A850E944900DC01CB019E838D838D8197
:101760009E819A83898389819A810197F1F79A836F
:1017700089832F960FB6F894DEBF0FBECDBFCF91F1
:10178000DF910895DF93CF93CDB7DEB72F970FB6D4
:10179000F894DEBF0FBECDBF8F878F85982F9295AF
:1017A0009F7081E4692F0E94801381E462E041E030
:1017B0000E94560F0E94210A81E46F850E948013C7
:1017C00081E462E041E00E94560F0E94210A80E01D
:1017D00090E0A0E8BFE38B879C87AD87BE876B85D1
:1017E0007C858D859E8520E030E04AEF54E40E94A0
:1017F0001F02DC01CB018F839887A987BA876F818D
:10180000788589859A8520E030E040E85FE30E9492
:10181000790388232CF481E090E09E838D833FC080
:101820006F81788589859A8520E03FEF4FE757E4FF
:101830000E94190318164CF56B857C858D859E8555
:1018400020E030E040E251E40E941F02DC01CB01C5
:10185000BC01CD010E944900DC01CB019E838D8338
:101860000FC088EC90E09C838B838B819C810197D7
:10187000F1F79C838B838D819E8101979E838D835D
:101880008D819E81009769F714C06F817885898565
:101890009A850E944900DC01CB019E838D838D8156
:1018A0009E819A83898389819A810197F1F79A832E
:1018B00089832F960FB6F894DEBF0FBECDBFCF91B0
:1018C000DF910895DF93CF9300D0CDB7DEB79A8331
:1018D00089830AC0E981FA8180810E94C20B8981D3
:1018E0009A8101969A838983E981FA81808188238C
:1018F00089F70F900F90CF91DF910895DF93CF93E9
:10190000CDB7DEB72E970FB6F894DEBF0FBECDBFB2
:1019100081E00E94220B80E090E0A0E2B1E48B879E
:101920009C87AD87BE876B857C858D859E8520E0F5
:1019300030E04AEF54E40E941F02DC01CB018F83A8
:101940009887A987BA876F81788589859A8520E0ED
:1019500030E040E85FE30E94790388232CF481E0C3
:1019600090E09E838D833FC06F81788589859A85BD
:1019700020E03FEF4FE757E40E94190318164CF59B
:101980006B857C858D859E8520E030E040E251E4CA
:101990000E941F02DC01CB01BC01CD010E94490065
:1019A000DC01CB019E838D830FC088EC90E09C838B
:1019B0008B838B819C810197F1F79C838B838D8135
:1019C0009E8101979E838D838D819E81009769F70B
:1019D00014C06F81788589859A850E944900DC0151
:1019E000CB019E838D838D819E819A83898389819A
:1019F0009A810197F1F79A8389832E960FB6F8940E
:101A0000DEBF0FBECDBFCF91DF910895DF93CF939F
:101A1000CDB7DEB761970FB6F894DEBF0FBECDBF6E
:101A2000888B698B8889833048F48889882331F0D2
:101A30008989813118F48989882319F480E88F878E
:101A40000DC08889813021F4898981588F8706C02B
:101A50008889823019F4898981548F878F850E9403
:101A6000220B80E090E0A0E8BFE38B879C87AD87E6
:101A7000BE876B857C858D859E8520E030E04AEFB2
:101A800054E40E941F02DC01CB018F839887A98751
:101A9000BA876F81788589859A8520E030E040E8B3
:101AA0005FE30E94790388232CF481E090E09E8319
:101AB0008D833FC06F81788589859A8520E03FEFCF
:101AC0004FE757E40E94190318164CF56B857C8587
:101AD0008D859E8520E030E040E251E40E941F02A7
:101AE000DC01CB01BC01CD010E944900DC01CB012E
:101AF0009E838D830FC088EC90E09C838B838B81C9
:101B00009C810197F1F79C838B838D819E81019746
:101B10009E838D838D819E81009769F714C06F81AC
:101B2000788589859A850E944900DC01CB019E83D6
:101B30008D838D819E819A83898389819A81019782
:101B4000F1F79A83898361960FB6F894DEBF0FBED2
:101B5000CDBFCF91DF910895DF93CF93CDB7DEB79F
:101B600084E460E041E00E94720E84E461E041E0C0
:101B70000E94720E84E462E041E00E94720E84E4EE
:101B800063E041E00E94720E84E464E040E00E9461
:101B9000720E84E465E040E00E94720E84E466E028
:101BA00040E00E94720E84E467E040E00E94720E02
:101BB00084E464E041E00E942B1284E465E041E0AB
:101BC0000E942B1284E466E041E00E942B1284E420
:101BD00067E041E00E942B12CF91DF910895DF93DF
:101BE000CF93CDB7DEB769970FB6F894DEBF0FBEBF
:101BF000CDBFCE0105969E8B8D8BE9EAF0E0F88F84
:101C0000EF8BF0E1F98FEF89F88D00808F89988D47
:101C10000196988F8F8BED89FE8900828D899E8930
:101C200001969E8B8D8B998D9150998FE98DEE2326
:101C300051F78FEF89831C8247C084E460E041E064
:101C40000E94560F84E461E041E00E94560F84E454
:101C500062E041E00E94560F84E463E041E00E94AC
:101C6000560F84E46C8140E00E94560F1B8223C013
:101C70008B81982F9C5F84E4692F0E943A108A839D
:101C80008A818823A9F48C81282F30E08B81482F0A
:101C900050E0220F331F220F331FCE010196820F17
:101CA000931F840F951FFC0134968081898306C0A1
:101CB0008B818F5F8B838B818430D0F28A818823E4
:101CC00039F08C818F5F8C838C81843008F4B5CFA0
:101CD000898169960FB6F894DEBF0FBECDBFCF9154
:101CE000DF910895DF93CF9300D000D00F92CDB74E
:101CF000DEB789836A834B838981282F30E03D8357
:101D00002C838C819D818234910509F444C02C81FF
:101D10003D812334310534F48C819D8181349105DA
:101D200071F0BCC02C813D812334310509F45FC0C2
:101D30008C819D818434910509F485C0AFC08B816D
:101D40008130A1F4AAE3B0E0EAE3F0E08081482F1B
:101D50008A81282F30E081E090E0022E02C0880FB7
:101D6000991F0A94E2F7842B8C9398C0AAE3B0E001
:101D7000EAE3F0E08081482F8A81282F30E081E07B
:101D800090E0022E02C0880F991F0A94E2F7809516
:101D900084238C9383C08B818130A1F4A7E3B0E0CE
:101DA000E7E3F0E08081482F8A81282F30E081E04E
:101DB00090E0022E02C0880F991F0A94E2F7842B4C
:101DC0008C936CC0A7E3B0E0E7E3F0E08081482F9C
:101DD0008A81282F30E081E090E0022E02C0880F37
:101DE000991F0A94E2F7809584238C9357C08B81C6
:101DF0008130A1F4A4E3B0E0E4E3F0E08081482F77
:101E00008A81282F30E081E090E0022E02C0880F06
:101E1000991F0A94E2F7842B8C9340C0A4E3B0E0AE
:101E2000E4E3F0E08081482F8A81282F30E081E0D0
:101E300090E0022E02C0880F991F0A94E2F7809565
:101E400084238C932BC08B818130A1F4A1E3B0E07B
:101E5000E1E3F0E08081482F8A81282F30E081E0A3
:101E600090E0022E02C0880F991F0A94E2F7842B9B
:101E70008C9314C0A1E3B0E0E1E3F0E08081482F4F
:101E80008A81282F30E081E090E0022E02C0880F86
:101E9000991F0A94E2F7809584238C930F900F90FA
:101EA0000F900F900F90CF91DF910895DF93CF9314
:101EB00000D000D00F92CDB7DEB789836A834B8301
:101EC0008981282F30E03D832C838C819D81823451
:101ED000910509F444C02C813D812334310534F44B
:101EE0008C819D818134910571F0BCC02C813D8134
:101EF0002334310509F45FC08C819D8184349105C0
:101F000009F485C0AFC08B818130A1F4ABE3B0E0B0
:101F1000EBE3F0E08081482F8A81282F30E081E0D8
:101F200090E0022E02C0880F991F0A94E2F7842BDA
:101F30008C9398C0ABE3B0E0EBE3F0E08081482FF6
:101F40008A81282F30E081E090E0022E02C0880FC5
:101F5000991F0A94E2F7809584238C9383C08B8128
:101F60008130A1F4A8E3B0E0E8E3F0E08081482FFD
:101F70008A81282F30E081E090E0022E02C0880F95
:101F8000991F0A94E2F7842B8C936CC0A8E3B0E00D
:101F9000E8E3F0E08081482F8A81282F30E081E05B
:101FA00090E0022E02C0880F991F0A94E2F78095F4
:101FB00084238C9357C08B818130A1F4A5E3B0E0DA
:101FC000E5E3F0E08081482F8A81282F30E081E02E
:101FD00090E0022E02C0880F991F0A94E2F7842B2A
:101FE0008C9340C0A5E3B0E0E5E3F0E08081482FAA
:101FF0008A81282F30E081E090E0022E02C0880F15
:10200000991F0A94E2F7809584238C932BC08B81CF
:102010008130A1F4A2E3B0E0E2E3F0E08081482F58
:102020008A81282F30E081E090E0022E02C0880FE4
:10203000991F0A94E2F7842B8C9314C0A2E3B0E0BA
:10204000E2E3F0E08081482F8A81282F30E081E0B0
:1020500090E0022E02C0880F991F0A94E2F7809543
:1020600084238C930F900F900F900F900F90CF912F
:10207000DF910895DF93CF9300D000D00F92CDB7BA
:10208000DEB78A836B8319828A81282F30E03D83F3
:102090002C834C815D8142345105B1F18C819D814D
:1020A0008334910534F42C813D812134310571F064
:1020B00084C04C815D814334510509F443C08C8157
:1020C0009D818434910509F45BC077C0E9E3F0E0B9
:1020D0008081482F50E08B81282F30E081E090E014
:1020E00002C0880F991F2A95E2F79A012823392305
:1020F0008B81882F90E0A90102C0559547958A955C
:10210000E2F7CA01898359C0E6E3F0E08081482FF5
:1021100050E08B81282F30E081E090E002C0880FF2
:10212000991F2A95E2F79A01282339238B81882F5A
:1021300090E0A90102C0559547958A95E2F7CA013A
:1021400089833BC0E3E3F0E08081482F50E08B813E
:10215000282F30E081E090E002C0880F991F2A9577
:10216000E2F79A01282339238B81882F90E0A90177
:1021700002C0559547958A95E2F7CA0189831DC02B
:10218000E0E3F0E08081482F50E08B81282F30E0A1
:1021900081E090E002C0880F991F2A95E2F79A012A
:1021A000282339238B81882F90E0A90102C05595FF
:1021B00047958A95E2F7CA01898389810F900F902C
:1021C0000F900F900F90CF91DF910895DF93CF93F1
:1021D00000D000D0CDB7DEB789836A838981282FEC
:1021E00030E03C832B838B819C818234910551F1BB
:1021F0002B813C812334310534F48B819C818134E3
:10220000910561F05AC02B813C812334310571F175
:102210008B819C8184349105E9F14FC0ABE3B0E040
:10222000EBE3F0E08081482F8A81282F30E081E0C5
:1022300090E0022E02C0880F991F0A94E2F78427CB
:102240008C933BC0A8E3B0E0E8E3F0E08081482F46
:102250008A81282F30E081E090E0022E02C0880FB2
:10226000991F0A94E2F784278C9327C0A5E3B0E076
:10227000E5E3F0E08081482F8A81282F30E081E07B
:1022800090E0022E02C0880F991F0A94E2F784277B
:102290008C9313C0A2E3B0E0E2E3F0E08081482F2A
:1022A0008A81282F30E081E090E0022E02C0880F62
:1022B000991F0A94E2F784278C930F900F900F9048
:1022C0000F90CF91DF910895DF93CF9300D000D08E
:1022D000CDB7DEB789836A838981282F30E03C83BC
:1022E0002B838B819C8182349105D9F02B813C8199
:1022F0002334310534F48B819C818134910561F064
:102300001EC02B813C812334310581F08B819C815F
:102310008434910581F013C0EAE3F0E08A81808380
:102320000EC0E7E3F0E08A81808309C0E4E3F0E0D7
:102330008A81808304C0E1E3F0E08A8180830F908A
:102340000F900F900F90CF91DF910895DF93CF936F
:1023500000D000D0CDB7DEB789836A838981282F6A
:1023600030E03C832B838B819C8182349105D9F0B2
:102370002B813C812334310534F48B819C81813461
:10238000910561F01EC02B813C812334310581F021
:102390008B819C818434910581F013C0EBE3F0E0E4
:1023A0008A8180830EC0E8E3F0E08A81808309C0DF
:1023B000E5E3F0E08A81808304C0E2E3F0E08A8113
:1023C00080830F900F900F900F90CF91DF91089521
:1023D000DF93CF9300D000D0CDB7DEB78A831982C8
:1023E0008A81282F30E03C832B838B819C8182342F
:1023F0009105D9F02B813C812334310534F48B8154
:102400009C818134910561F01EC02B813C81233475
:10241000310581F08B819C818434910581F013C05A
:10242000E9E3F0E0808189830EC0E6E3F0E080819B
:10243000898309C0E3E3F0E08081898304C0E0E39D
:10244000F0E08081898389810F900F900F900F9029
:10245000CF91DF910895DF93CF9300D000D00F92FA
:10246000CDB7DEB789836A834B838981282F30E01B
:102470003D832C838C819D818234910509F444C075
:102480002C813D812334310534F48C819D8181344C
:10249000910571F0BCC02C813D812334310509F4D4
:1024A0005FC08C819D818434910509F485C0AFC0E3
:1024B0008B818130A1F4ABE3B0E0EBE3F0E080810D
:1024C000482F8A81282F30E081E090E0022E02C060
:1024D000880F991F0A94E2F7842B8C9398C0ABE382
:1024E000B0E0EBE3F0E08081482F8A81282F30E0D4
:1024F00081E090E0022E02C0880F991F0A94E2F753
:10250000809584238C9383C08B818130A1F4A8E3D0
:10251000B0E0E8E3F0E08081482F8A81282F30E0A6
:1025200081E090E0022E02C0880F991F0A94E2F722
:10253000842B8C936CC0A8E3B0E0E8E3F0E08081EA
:10254000482F8A81282F30E081E090E0022E02C0DF
:10255000880F991F0A94E2F7809584238C9357C0C3
:102560008B818130A1F4A5E3B0E0E5E3F0E0808168
:10257000482F8A81282F30E081E090E0022E02C0AF
:10258000880F991F0A94E2F7842B8C9340C0A5E32F
:10259000B0E0E5E3F0E08081482F8A81282F30E029
:1025A00081E090E0022E02C0880F991F0A94E2F7A2
:1025B000809584238C932BC08B818130A1F4A2E37E
:1025C000B0E0E2E3F0E08081482F8A81282F30E0FC
:1025D00081E090E0022E02C0880F991F0A94E2F772
:1025E000842B8C9314C0A2E3B0E0E2E3F0E080819E
:1025F000482F8A81282F30E081E090E0022E02C02F
:10260000880F991F0A94E2F7809584238C930F908A
:102610000F900F900F900F90CF91DF910895DF935F
:10262000CF9300D000D0CDB7DEB789836A838A818B
:102630008F708A838981282F30E03C832B838B81A4
:102640009C818234910531F12B813C812334310509
:1026500034F48B819C818134910561F04AC02B81D7
:102660003C812334310531F18B819C818434910587
:1026700089F13FC0ABE3B0E0EBE3F0E08081807F25
:102680008C93ABE3B0E0EBE3F0E090818A81892B9F
:102690008C932FC0A8E3B0E0E8E3F0E08081807F76
:1026A0008C93A8E3B0E0E8E3F0E090818A81892B85
:1026B0008C931FC0A5E3B0E0E5E3F0E08081807F6C
:1026C0008C93A5E3B0E0E5E3F0E090818A81892B6B
:1026D0008C930FC0A2E3B0E0E2E3F0E08081807F62
:1026E0008C93A2E3B0E0E2E3F0E090818A81892B51
:1026F0008C930F900F900F900F90CF91DF910895D2
:10270000DF93CF9300D000D0CDB7DEB789836A8343
:102710008A818295807F8A838981282F30E03C835B
:102720002B838B819C818234910531F12B813C81FB
:102730002334310534F48B819C818134910561F01F
:102740004AC02B813C812334310531F18B819C813E
:102750008434910589F13FC0ABE3B0E0EBE3F0E0F6
:1027600080818F708C93ABE3B0E0EBE3F0E090817D
:102770008A81892B8C932FC0A8E3B0E0E8E3F0E0D6
:1027800080818F708C93A8E3B0E0E8E3F0E0908163
:102790008A81892B8C931FC0A5E3B0E0E5E3F0E0CC
:1027A00080818F708C93A5E3B0E0E5E3F0E0908149
:1027B0008A81892B8C930FC0A2E3B0E0E2E3F0E0C2
:1027C00080818F708C93A2E3B0E0E2E3F0E090812F
:1027D0008A81892B8C930F900F900F900F90CF913F
:1027E000DF910895DF93CF930F92CDB7DEB7898342
:1027F00089816FEF0E9464110F90CF91DF9108954E
:10280000DF93CF93CDB7DEB761970FB6F894DEBFF5
:102810000FBECDBF8B876C87CE0101969E878D87BB
:10282000E9EBF0E0F88BEF87FAE0F98BEF85F889B8
:1028300000808F8598890196988B8F87ED85FE851E
:1028400000828D859E8501969E878D8799899150FE
:10285000998BE989EE2351F78C85282F30E0CE0142
:102860000196FC01E20FF31F90818B85692F0E9476
:10287000A61161960FB6F894DEBF0FBECDBFCF9103
:10288000DF9108950F931F93DF93CF93CDB7DEB7FA
:10289000C45CD0400FB6F894DEBF0FBECDBF0E941F
:1028A000AC0D81E490E063E070E00E948E060E942F
:1028B000D10682E40E94F213A4E3B0E0E4E3F0E086
:1028C000808181608C93A4E3B0E0E4E3F0E0808158
:1028D00082608C93A4E3B0E0E4E3F0E08081846064
:1028E0008C93A4E3B0E0E4E3F0E0808188608C9313
:1028F000A4E3B0E0E4E3F0E0808180618C93A4E3A2
:10290000B0E0E4E3F0E0808180628C9380E690E0C8
:102910000E94620C82E061E00E94060D8BE690E06E
:102920000E94620C0E94A3050E94EF0D8093C900D3
:102930008091C9008F3F09F477C68091C900813327
:1029400009F09FC581E490E063E070E00E94B0066A
:102950000E947E0C85E790E00E94620C81E067E0B7
:102960000E94060DFE01EF53FF4F80E090E0AAEFBA
:10297000B3E480839183A283B3838E0103541F4FFA
:10298000FE01EF53FF4F608171818281938120E0CE
:1029900030E04AEF54E40E941F02DC01CB01F80151
:1029A00080839183A283B383FE01E354FF4F608150
:1029B00071818281938120E030E040E85FE30E94F2
:1029C0007903882344F4FE01E554FF4F81E090E051
:1029D0009183808364C0FE01E354FF4F6081718165
:1029E0008281938120E03FEF4FE757E40E94190373
:1029F00018160CF043C0FE01EF53FF4F6081718148
:102A00008281938120E030E040E251E40E941F0285
:102A1000DC01CB018E0105541F4FBC01CD010E948A
:102A20004900DC01CB01F801918380831FC0FE01C6
:102A3000E754FF4F88EC90E091838083FE01E754D8
:102A4000FF4F808191810197F1F7FE01E754FF4F1D
:102A500091838083DE01A554BF4FFE01E554FF4FF3
:102A600080819181019711969C938E93FE01E5548C
:102A7000FF4F808191810097D1F627C08E010554C8
:102A80001F4FFE01E354FF4F60817181828193816A
:102A90000E944900DC01CB01F80191838083DE01B3
:102AA000A954BF4FFE01E554FF4F808191818D9362
:102AB0009C93FE01E954FF4F808191810197F1F7CA
:102AC000FE01E954FF4F918380830E94EF0D8093B4
:102AD000C7008091C7008F3FC1F38091C7000E945B
:102AE000C20BFE01ED54FF4F80E090E0A6E9B3E495
:102AF00080839183A283B3838E0101551F4FFE0112
:102B0000ED54FF4F608171818281938120E030E03C
:102B10004AEF54E40E941F02DC01CB01F8018083DC
:102B20009183A283B383FE01E155FF4F60817181E0
:102B30008281938120E030E040E85FE30E947903E6
:102B4000882344F4FE01E355FF4F81E090E0918338
:102B5000808364C0FE01E155FF4F608171818281F5
:102B6000938120E03FEF4FE757E40E9419031816C6
:102B70000CF043C0FE01ED54FF4F608171818281F2
:102B8000938120E030E040E251E40E941F02DC012A
:102B9000CB018E0103551F4FBC01CD010E9449009E
:102BA000DC01CB01F801918380831FC0FE01E55554
:102BB000FF4F88EC90E091838083FE01E555FF4F45
:102BC000808191810197F1F7FE01E555FF4F9183D7
:102BD0008083DE01A355BF4FFE01E355FF4F808187
:102BE0009181019711969C938E93FE01E355FF4FBF
:102BF000808191810097D1F627C08E0103551F4F28
:102C0000FE01E155FF4F60817181828193810E94B5
:102C10004900DC01CB01F80191838083DE01A755D7
:102C2000BF4FFE01E355FF4F808191818D939C93AF
:102C3000FE01E755FF4F808191810197F1F7FE0179
:102C4000E755FF4F918380830E94EF0D8093C8006A
:102C50008091C8008F3FC1F38091C8000E94C20BD1
:102C6000FE01EB55FF4F80E090E0A6E9B3E48083DE
:102C70009183A283B3838E010F551F4FFE01EB5545
:102C8000FF4F608171818281938120E030E04AEFC3
:102C900054E40E941F02DC01CB01F8018083918380
:102CA000A283B383FE01EF55FF4F60817181828162
:102CB000938120E030E040E85FE30E9479038823BD
:102CC00044F4FE01E156FF4F81E090E09183808360
:102CD00064C0FE01EF55FF4F608171818281938155
:102CE00020E03FEF4FE757E40E94190318160CF05D
:102CF00043C0FE01EB55FF4F60817181828193815A
:102D000020E030E040E251E40E941F02DC01CB01F0
:102D10008E0101561F4FBC01CD010E944900DC010C
:102D2000CB01F801918380831FC0FE01E356FF4F62
:102D300088EC90E091838083FE01E356FF4F808111
:102D400091810197F1F7FE01E356FF4F9183808354
:102D5000DE01A156BF4FFE01E156FF4F80819181F8
:102D6000019711969C938E93FE01E156FF4F80814F
:102D700091810097D1F627C08E0101561F4FFE01A9
:102D8000EF55FF4F60817181828193810E944900DC
:102D9000DC01CB01F80191838083DE01A556BF4F92
:102DA000FE01E156FF4F808191818D939C93FE013E
:102DB000E556FF4F808191810197F1F7FE01E556BD
:102DC000FF4F918380838091C700882F90E09C0102
:102DD000220F331FC901880F991F880F991F820F77
:102DE000931F982F8091C800890F80518093C6004F
:102DF0000E947E0C8EE790E00E94620C81E069E008
:102E00000E94060D0E94EF0D8093C7008091C700BD
:102E10008F3FC1F38091C7000E94C20BFE01E956AB
:102E2000FF4F80E090E0A6E9B3E480839183A28322
:102E3000B3838E010D561F4FFE01E956FF4F60818F
:102E400071818281938120E030E04AEF54E40E9456
:102E50001F02DC01CB01F80180839183A283B3833D
:102E6000FE01ED56FF4F608171818281938120E0E8
:102E700030E040E85FE30E947903882344F4FE01D8
:102E8000EF56FF4F81E090E09183808364C0FE01A4
:102E9000ED56FF4F608171818281938120E03FEF89
:102EA0004FE757E40E94190318160CF043C0FE01C7
:102EB000E956FF4F608171818281938120E030E08B
:102EC00040E251E40E941F02DC01CB018E010F564B
:102ED0001F4FBC01CD010E944900DC01CB01F8016C
:102EE000918380831FC0FE01E157FF4F88EC90E083
:102EF00091838083FE01E157FF4F8081918101978B
:102F0000F1F7FE01E157FF4F91838083DE01AF5659
:102F1000BF4FFE01EF56FF4F8081918101971196BF
:102F20009C938E93FE01EF56FF4F80819181009715
:102F3000D1F627C08E010F561F4FFE01ED56FF4FF1
:102F400060817181828193810E944900DC01CB0103
:102F5000F80191838083DE01A357BF4FFE01EF5636
:102F6000FF4F808191818D939C93FE01E357FF4F2A
:102F7000808191810197F1F7FE01E357FF4F918323
:102F800080830E94EF0D8093C8008091C8008F3F1E
:102F9000C1F38091C8000E94C20BFE01E757FF4FAA
:102FA00080E090E0A6E9B3E480839183A283B383B9
:102FB0008E010B571F4FFE01E757FF4F6081718154
:102FC0008281938120E030E04AEF54E40E941F02A6
:102FD000DC01CB01F80180839183A283B383FE01DE
:102FE000EB57FF4F608171818281938120E030E057
:102FF00040E85FE30E947903882344F4FE01ED5723
:10300000FF4F81E090E09183808364C0FE01EB5725
:10301000FF4F608171818281938120E03FEF4FE714
:1030200057E40E94190318160CF043C0FE01E7573D
:10303000FF4F608171818281938120E030E040E226
:1030400051E40E941F02DC01CB018E010D571F4F7E
:10305000BC01CD010E944900DC01CB01F801918344
:1030600080831FC0FE01EF57FF4F88EC90E09183F3
:103070008083FE01EF57FF4F808191810197F1F727
:10308000FE01EF57FF4F91838083DE01AD57BF4FA5
:10309000FE01ED57FF4F80819181019711969C931E
:1030A0008E93FE01ED57FF4F808191810097D1F6FD
:1030B00027C08E010D571F4FFE01EB57FF4F608158
:1030C0007181828193810E944900DC01CB01F8016A
:1030D00091838083DE01A158BF4FFE01ED57FF4F62
:1030E000808191818D939C93FE01E158FF4F8081F7
:1030F00091810197F1F7FE01E158FF4F91838083A1
:103100008091C700882F90E09C01220F331FC901D6
:10311000880F991F880F991F820F931F982F8091F6
:10312000C800890F80518093C5000E947E0C89E8F9
:1031300090E00E94620C81E069E00E94060D0E940E
:10314000EF0D8093C7008091C7008F3FC1F380913E
:10315000C7000E94C20BFE01E558FF4F80E090E0DF
:10316000A6E9B3E480839183A283B3838E010958D7
:103170001F4FFE01E558FF4F60817181828193816D
:1031800020E030E04AEF54E40E941F02DC01CB0152
:10319000F80180839183A283B383FE01E958FF4F36
:1031A000608171818281938120E030E040E85FE3BB
:1031B0000E947903882344F4FE01EB58FF4F81E01D
:1031C00090E09183808364C0FE01E958FF4F6081E5
:1031D00071818281938120E03FEF4FE757E40E94A5
:1031E000190318160CF043C0FE01E558FF4F60812B
:1031F00071818281938120E030E040E251E40E94BD
:103200001F02DC01CB018E010B581F4FBC01CD0109
:103210000E944900DC01CB01F801918380831FC02B
:10322000FE01ED58FF4F88EC90E091838083FE0112
:10323000ED58FF4F808191810197F1F7FE01ED5824
:10324000FF4F91838083DE01AB58BF4FFE01EB58E7
:10325000FF4F80819181019711969C938E93FE017F
:10326000EB58FF4F808191810097D1F627C08E01E6
:103270000B581F4FFE01E958FF4F60817181828119
:1032800093810E944900DC01CB01F8019183808386
:10329000DE01AF58BF4FFE01EB58FF4F8081918197
:1032A0008D939C93FE01EF58FF4F80819181019790
:1032B000F1F7FE01EF58FF4F918380830E94EF0DDD
:1032C0008093C8008091C8008F3FC1F38091C800EF
:1032D0000E94C20BFE01E359FF4F80E090E0A6E997
:1032E000B3E480839183A283B3838E0107591F4F78
:1032F000FE01E359FF4F608171818281938120E05B
:1033000030E04AEF54E40E941F02DC01CB01F801D7
:1033100080839183A283B383FE01E759FF4F6081CD
:1033200071818281938120E030E040E85FE30E9478
:103330007903882344F4FE01E959FF4F81E090E0CE
:103340009183808364C0FE01E759FF4F60817181E2
:103350008281938120E03FEF4FE757E40E941903F9
:1033600018160CF043C0FE01E359FF4F60817181D4
:103370008281938120E030E040E251E40E941F020C
:10338000DC01CB018E0109591F4FBC01CD010E9408
:103390004900DC01CB01F801918380831FC0FE014D
:1033A000EB59FF4F88EC90E091838083FE01EB594D
:1033B000FF4F808191810197F1F7FE01EB59FF4F9B
:1033C00091838083DE01A959BF4FFE01E959FF4F68
:1033D00080819181019711969C938E93FE01E9590A
:1033E000FF4F808191810097D1F627C08E01095946
:1033F0001F4FFE01E759FF4F6081718182819381E8
:103400000E944900DC01CB01F80191838083DE0139
:10341000AD59BF4FFE01E959FF4F808191818D93D6
:103420009C93FE01ED59FF4F808191810197F1F747
:10343000FE01ED59FF4F918380838091C700882F53
:1034400090E09C01220F331FC901880F991F880F3C
:10345000991F820F931F982F8091C800890F805168
:103460008093C4000E947E0C80E690E00E94620C73
:1034700082E061E00E94060D8BE690E00E94620C03
:10348000D3C00E947E0C84E990E00E94620C81E42B
:1034900090E063E070E00E949F06FE01E15AFF4F5A
:1034A00080E090E0AAE7B4E480839183A283B383B1
:1034B0008E01055A1F4FFE01E15AFF4F6081718155
:1034C0008281938120E030E04AEF54E40E941F02A1
:1034D000DC01CB01F80180839183A283B383FE01D9
:1034E000E55AFF4F608171818281938120E030E055
:1034F00040E85FE30E947903882344F4FE01E75A21
:10350000FF4F81E090E09183808364C0FE01E55A23
:10351000FF4F608171818281938120E03FEF4FE70F
:1035200057E40E94190318160CF043C0FE01E15A3B
:10353000FF4F608171818281938120E030E040E221
:1035400051E40E941F02DC01CB018E01075A1F4F7C
:10355000BC01CD010E944900DC01CB01F80191833F
:1035600080831FC0FE01E95AFF4F88EC90E09183F1
:103570008083FE01E95AFF4F808191810197F1F725
:10358000FE01E95AFF4F91838083DE01A75ABF4FA6
:10359000FE01E75AFF4F80819181019711969C931C
:1035A0008E93FE01E75AFF4F808191810097D1F6FB
:1035B00027C08E01075A1F4FFE01E55AFF4F608159
:1035C0007181828193810E944900DC01CB01F80165
:1035D00091838083DE01AB5ABF4FFE01E75AFF4F54
:1035E000808191818D939C93FE01EB5AFF4F8081E6
:1035F00091810197F1F7FE01EB5AFF4F9183808390
:1036000081E490E063E070E00E94B0060E947E0CCE
:1036100080E690E00E94620C82E061E00E94060D6C
:103620008BE690E00E94620CA5E3B0E0E5E3F0E0F9
:10363000808182608C93A5E3B0E0E5E3F0E08081D7
:1036400084608C93A5E3B0E0E5E3F0E080818860DE
:103650008C93A5E3B0E0E5E3F0E0808180618C939A
:10366000A5E3B0E0E5E3F0E0808180628C93A5E320
:10367000B0E0E5E3F0E080818E7F8C938091C40020
:103680009AE0692F0E948C1F892F982F82E4692F5E
:103690000E940014FE01EF5AFF4F80E090E0A0EA84
:1036A000B0E480839183A283B3838E01035B1F4FB9
:1036B000FE01EF5AFF4F608171818281938120E08A
:1036C00030E04AEF54E40E941F02DC01CB01F80114
:1036D00080839183A283B383FE01E35BFF4F60810C
:1036E00071818281938120E030E040E85FE30E94B5
:1036F0007903882344F4FE01E55BFF4F81E090E00D
:103700009183808364C0FE01E35BFF4F6081718120
:103710008281938120E03FEF4FE757E40E94190335
:1037200018160CF043C0FE01EF5AFF4F6081718103
:103730008281938120E030E040E251E40E941F0248
:10374000DC01CB018E01055B1F4FBC01CD010E9446
:103750004900DC01CB01F801918380831FC0FE0189
:10376000E75BFF4F88EC90E091838083FE01E75B8D
:10377000FF4F808191810197F1F7FE01E75BFF4FD9
:1037800091838083DE01A55BBF4FFE01E55BFF4FA8
:1037900080819181019711969C938E93FE01E55B48
:1037A000FF4F808191810097D1F627C08E01055B84
:1037B0001F4FFE01E35BFF4F608171818281938126
:1037C0000E944900DC01CB01F80191838083DE0176
:1037D000A95BBF4FFE01E55BFF4F808191818D9317
:1037E0009C93FE01E95BFF4F808191810197F1F786
:1037F000FE01E95BFF4F91838083A5E3B0E0E5E341
:10380000F0E0808181608C93A5E3B0E0E5E3F0E037
:10381000808184608C93A5E3B0E0E5E3F0E08081F3
:1038200088608C93A5E3B0E0E5E3F0E080818061FF
:103830008C93A5E3B0E0E5E3F0E0808180628C93B7
:10384000A5E3B0E0E5E3F0E080818D7F8C9380918B
:10385000C4009AE0692F0E948C1F982F82E4692F80
:103860000E940014FE01ED5BFF4F80E090E0A0EAB3
:10387000B0E480839183A283B3838E01015C1F4FE8
:10388000FE01ED5BFF4F608171818281938120E0B9
:1038900030E04AEF54E40E941F02DC01CB01F80142
:1038A00080839183A283B383FE01FF96608171813F
:1038B0008281938120E030E040E85FE30E94790359
:1038C00088232CF481E090E09EAF8DAF46C0FE01CE
:1038D000FF96608171818281938120E03FEF4FE705
:1038E00057E40E941903181664F5FE01ED5BFF4FC3
:1038F000608171818281938120E030E040E251E477
:103900000E941F02DC01CB01BC01CD010E944900D5
:10391000DC01CB019EAF8DAF0FC088EC90E09CAF77
:103920008BAF8BAD9CAD0197F1F79CAF8BAF8DAD9D
:103930009EAD01979EAF8DAF8DAD9EAD009769F79F
:1039400016C0FE01FF9660817181828193810E9481
:103950004900DC01CB019EAF8DAF8DAD9EAD9AAF1E
:1039600089AF89AD9AAD0197F1F79AAF89AFA5E319
:10397000B0E0E5E3F0E0808181608C93A5E3B0E006
:10398000E5E3F0E0808182608C93A5E3B0E0E5E3BD
:10399000F0E0808188608C93A5E3B0E0E5E3F0E09F
:1039A000808180618C93A5E3B0E0E5E3F0E0808165
:1039B00080628C93A5E3B0E0E5E3F0E080818B7F4B
:1039C0008C938091C5009AE0692F0E948C1F892FEB
:1039D000982F82E4692F0E94001480E090E0A0EA12
:1039E000B0E48DAB9EABAFABB8AF6DA97EA98FA98C
:1039F00098AD20E030E04AEF54E40E941F02DC0161
:103A0000CB0189AB9AABABABBCAB69A97AA98BA94B
:103A10009CA920E030E040E85FE30E94790388231E
:103A20002CF481E090E098AB8FA73FC069A97AA9F8
:103A30008BA99CA920E03FEF4FE757E40E941903B0
:103A400018164CF56DA97EA98FA998AD20E030E03D
:103A500040E251E40E941F02DC01CB01BC01CD0118
:103A60000E944900DC01CB0198AB8FA70FC088EC06
:103A700090E09EA78DA78DA59EA50197F1F79EA723
:103A80008DA78FA598A9019798AB8FA78FA598A907
:103A9000009769F714C069A97AA98BA99CA90E940B
:103AA0004900DC01CB0198AB8FA78FA598A99CA7F3
:103AB0008BA78BA59CA50197F1F79CA78BA7A5E3E6
:103AC000B0E0E5E3F0E0808181608C93A5E3B0E0B5
:103AD000E5E3F0E0808182608C93A5E3B0E0E5E36C
:103AE000F0E0808184608C93A5E3B0E0E5E3F0E052
:103AF000808180618C93A5E3B0E0E5E3F0E0808114
:103B000080628C93A5E3B0E0E5E3F0E08081877FFD
:103B10008C938091C5009AE0692F0E948C1F982F8A
:103B200082E4692F0E94001480E090E0A0EAB0E4F3
:103B30008FA398A7A9A7BAA76FA178A589A59AA5C9
:103B400020E030E04AEF54E40E941F02DC01CB0188
:103B50008BA39CA3ADA3BEA36BA17CA18DA19EA1B1
:103B600020E030E040E85FE30E94790388232CF4F2
:103B700081E090E09AA389A33FC06BA17CA18DA1B5
:103B80009EA120E03FEF4FE757E40E94190318166B
:103B90004CF56FA178A589A59AA520E030E040E218
:103BA00051E40E941F02DC01CB01BC01CD010E9447
:103BB0004900DC01CB019AA389A30FC088EC90E0F7
:103BC00098A38F8F8F8D98A10197F1F798A38F8F6E
:103BD00089A19AA101979AA389A389A19AA1009783
:103BE00069F714C06BA17CA18DA19EA10E94490020
:103BF000DC01CB019AA389A389A19AA19E8F8D8F05
:103C00008D8D9E8D0197F1F79E8F8D8FA5E3B0E08E
:103C1000E5E3F0E0808181608C93A5E3B0E0E5E32B
:103C2000F0E0808182608C93A5E3B0E0E5E3F0E012
:103C3000808184608C93A5E3B0E0E5E3F0E08081CF
:103C400088608C93A5E3B0E0E5E3F0E080818062DA
:103C50008C93A5E3B0E0E5E3F0E080818F7E8C9368
:103C60008091C6009AE0692F0E948C1F892F982F9F
:103C700082E4692F0E94001480E090E0A0EAB0E4A2
:103C8000898F9A8FAB8FBC8F698D7A8D8B8D9C8D30
:103C900020E030E04AEF54E40E941F02DC01CB0137
:103CA0008D8B9E8BAF8BB88F6D897E898F89988D18
:103CB00020E030E040E85FE30E94790388232CF4A1
:103CC00081E090E09C8B8B8B3FC06D897E898F89D2
:103CD000988D20E03FEF4FE757E40E941903181634
:103CE0004CF5698D7A8D8B8D9C8D20E030E040E223
:103CF00051E40E941F02DC01CB01BC01CD010E94F6
:103D00004900DC01CB019C8B8B8B0FC088EC90E0D1
:103D10009A8B898B89899A890197F1F79A8B898B7C
:103D20008B899C8901979C8B8B8B8B899C890097B5
:103D300069F714C06D897E898F89988D0E9449002A
:103D4000DC01CB019C8B8B8B8B899C89988B8F871B
:103D50008F8598890197F1F7988B8F87A5E3B0E05D
:103D6000E5E3F0E0808181608C93A5E3B0E0E5E3DA
:103D7000F0E0808182608C93A5E3B0E0E5E3F0E0C1
:103D8000808184608C93A5E3B0E0E5E3F0E080817E
:103D900088608C93A5E3B0E0E5E3F0E0808180618A
:103DA0008C93A5E3B0E0E5E3F0E080818F7D8C9318
:103DB0008091C6009AE0692F0E948C1F982F82E4A0
:103DC000692F0E94001480E090E0A0EAB0E48B87A5
:103DD0009C87AD87BE876B857C858D859E8520E021
:103DE00030E04AEF54E40E941F02DC01CB018F83D4
:103DF0009887A987BA876F81788589859A8520E019
:103E000030E040E85FE30E94790388232CF481E0EE
:103E100090E09E838D833FC06F81788589859A85E8
:103E200020E03FEF4FE757E40E94190318164CF5C6
:103E30006B857C858D859E8520E030E040E251E4F5
:103E40000E941F02DC01CB01BC01CD010E94490090
:103E5000DC01CB019E838D830FC088EC90E09C83B6
:103E60008B838B819C810197F1F79C838B838D8160
:103E70009E8101979E838D838D819E81009769F736
:103E800014C06F81788589859A850E944900DC017C
:103E9000CB019E838D838D819E819A8389838981C5
:103EA0009A810197F1F79A8389838091C4008C33BA
:103EB00039F41092C4008091C5008F5F8093C500D3
:103EC0008091C5008C3339F41092C5008091C600F2
:103ED0008F5F8093C6008091C600883111F00C94EA
:103EE00094141092C6000C9494141F920F920FB663
:103EF0000F9211248F93DF93CF93CDB7DEB78091CC
:103F0000C4008F5F8093C400CF91DF918F910F9099
:103F10000FBE0F901F901895991B79E004C0991F50
:103F2000961708F0961B881F7A95C9F78095089513
:103F30002F923F924F925F926F927F928F929F92B9
:103F4000AF92BF92CF92DF92EF92FF920F931F93A7
:103F5000CF93DF93CDB7DEB7CA1BDB0B0FB6F89458
:103F6000DEBF0FBECDBF09942A88398848885F8498
:103F70006E847D848C849B84AA84B984C884DF8009
:103F8000EE80FD800C811B81AA81B981CE0FD11DED
:103F90000FB6F894DEBF0FBECDBFED010895F894C3
:023FA000FFCF51
:103FA2007072657373203120746F007365742063BF
:103FB2006C6F636B00686F7572733D2D2D006D69B8
:103FC2006E757465733D2D2D007365636F6E64733A
:103FD2003D2D2D0077726F6E672063686F69636590
:103FE2000000000000000000003738392F34353659
:103FF2002A3132332D41303D2B3F065B4F666D7DBA
:04400200477F6F0085
:00000001FF
